:020000041000EA
:1000000000B5324B212058609868022188439860DF
:10001000D860186158612E4B002199600221596106
:100020000121F02299502B49196001219960352056
:1000300000F044F80222904214D00621196600F024
:1000400034F8196E01211966002018661A6600F04E
:100050002CF8196E196E196E052000F02FF8012189
:100060000842F9D1002199601B49196000215960AB
:100070001A491B48016001219960EB211966A021F2
:10008000196600F012F800219960164914480160C1
:100090000121996001BC002800D000471248134993
:1000A000086003C880F30888084703B5996A0420EC
:1000B0000142FBD001200142F8D103BD02B5186610
:1000C0001866FFF7F2FF186E186E02BD00000240BE
:1000D000000000180000070000035F00212200005C
:1000E000F4000018222000A00001001008ED00E03C
:1000F00000000000000000000000000074B24E7A12
:1001000000200420F7010010C3010010C5010010F9
:10011000C1010010C1010010C1010010C101001097
:10012000C1010010C1010010C1010010C701001081
:10013000C1010010C1010010C9010010CB01001065
:10014000CD010010CD010010CD010010CD01001037
:10015000CD010010CD010010CD010010CD01001027
:10016000CD010010CD010010CD010010CD01001017
:10017000CD010010CD010010CD010010CD01001007
:10018000CD010010CD010010CD010010CD010010F7
:10019000CD010010CD010010CD010010CD010010E7
:1001A000CD010010CD010010CD010010CD010010D7
:1001B000CD010010CD010010CD010010CD010010C7
:1001C00000BE00BE00BE00BE00BE00BEEFF3058054
:1001D000103800BEF2EB8871245705104057051007
:1001E0003402001090A31AE700201F49086006C8D7
:1001F00081F3088810471D48006800282FD10DA4FE
:100200000ECC002902D000F012F8F9E71849194A7B
:10021000002000E001C19142FCD1174988471749ED
:1002200088471749884700BEFDE701C901C29A42C5
:10023000FBD3704740570510C0000020D41E00209B
:1002400054750510000004200000042054750510AA
:10025000001004200010042000000000704709482E
:1002600003F0F6FC0047000008ED00E0000000D0BD
:10027000D81E0020943A002065290010B10C00100F
:10028000232900105756000006005250ABB36053AC
:10029000C886041006005250861C0302D88604103B
:1002A000060052505422A29DE086041005005250D0
:1002B000DE65F46854750510F8B5C04610B5064CF7
:1002C0002378002B07D1054B002B02D0044800E017
:1002D00000BF0123237010BDD81F002000000000C4
:1002E000F8750410044B10B5002B03D003490448E3
:1002F00000E000BF10BDC04600000000DC1F002071
:10030000F8750410014B03607047C04688770410ED
:10031000024B0360024B03607047C046987704109D
:100320008877041010B50400044B0360044B03608D
:10033000082106F01FFC200010BDC046987704106D
:100340008877041010B50400034B0360042106F005
:1003500011FC200010BDC0468877041070B5040061
:100360000D00012805D0002C02D1074B9D4207D07B
:1003700070BD054B9942F6D1044808F00DF9F2E73B
:10038000024808F019F9F3E7FFFF0000503600209B
:1003900010B504000300084A04C3406822000C3270
:1003A000904203D09968013106F0E4FB200006F08A
:1003B00039FE200010BDC046508B041010B502005D
:1003C000038A59001224005F4843C0125B431B1389
:1003D0001421525E53439B13C01803F071FF002297
:1003E000024B03F0D6FE03F0EBFF10BD00005940B6
:1003F00010B504000068A368191A002801D006F09F
:10040000B9FB200010BD30B587B0040005AD8821D0
:10041000280005F011F96168237A0A6868462D788A
:1004200005705568062202A8A847002102A805F019
:10043000EFF805B2012102A805F0EAF80002054331
:100440002582022102A805F0E3F805B2032102A8E3
:1004500005F0DEF8000205436582042102A805F0DC
:10046000D7F805B2052102A805F0D2F8000205432D
:10047000A5820298049B191A002801D006F07AFB85
:1004800007B030BD02A8FFF7B3FF06F073FC30B52C
:1004900087B0050005AC6021200005F0CDF8696843
:1004A0002B7A0A686846247804705468032202A8EC
:1004B000A047002102A805F0ABF80403012102A81F
:1004C00005F0A6F800010443022102A805F0A0F8F7
:1004D0000009C0B20443EC600298049B191A00287A
:1004E00001D006F047FB07B030BD02A8FFF780FF40
:1004F00006F040FCF0B5CE46474680B58BB005000F
:100500000C00F22103A805F097F86E683368DF68E5
:10051000A40009AA147007AB07920122089201AA4D
:1005200003CB03C20023049305930693019B9946D2
:1005300001240123002C07DB002B0FD0002C0BDB48
:10054000012007F0B7F90AE017481AF055FC04A893
:10055000FFF74EFF06F00EFC1AF016FC0020049088
:10056000431C98460693002C08D14346059303ABE1
:100570001B782A7A04A93000B84704E001224946D2
:100580003AF0FEF8F1E70498069B191A002801D00A
:1005900006F0F0FA0BB0C0BCB946B046F0BD04A8F6
:1005A000FFF726FF06F0E6FBF875041070B582B081
:1005B00005000E1E0DD0941B01940F2C0ED8286838
:1005C000012C14D0002C14D02200310004F046FC81
:1005D0000FE09142EFD00B481AF0F6FB002201A980
:1005E000280025F073FC2860019BAB60E7E73378B7
:1005F0000370019A6A602B689B1800221A7002B07F
:1006000070BDC0462C76041070B504000D000300C8
:100610000833036000290AD008003BF085FC2A1843
:10062000002329002000FFF7C1FF200070BD012238
:10063000F6E7000030B5AFB00400002102A804F0D6
:10064000FBFF6168237A0A68684602AC247804706C
:100650005468012203A8A047002103A804F0D8FF92
:1006600060280AD101240398059B191A002801D09B
:1006700006F080FA20002FB030BD0FAB0D93344A46
:1006800011004C3900230DA8FFF790FF15AB139311
:10069000304A11001239002313A8FFF787FF13AB6C
:1006A0002E220DA906A805F021F82B4B06930798DA
:1006B00009AB984203D0099B591C06F05BFA06A8C7
:1006C00006F0B0FC139815AB984203D0159B591C4B
:1006D00006F050FA0D980FAB984203D00F9B591CAF
:1006E00006F048FA0024BEE704000D000DA825F02E
:1006F0000BFC03A8FFF77CFE20002900012905D090
:1007000007F026F804000D00F3E7F7E706F000FC19
:10071000040026AA114920A8FFF776FF2DAA104948
:1007200027A8FFF771FF009427AB342220A919A84E
:1007300005F074FA19A8FFF72BFE27A825F0E4FBB3
:1007400020A825F0E1FB06F01DFC002492E7C0463E
:10075000A4760410BA760410508B04105876041056
:10076000A876041010B58EB00400214B0360214B15
:100770000833036041600272012303824382023323
:100780008382FFF757FF002809D003212000FFF7DD
:10079000B1FE2000FFF737FE20000EB010BD1C3068
:1007A00006F0AAFA040006AA13496846FFF72CFFD0
:1007B0000DAA124907A8FFF727FF07AB10226946C9
:1007C000200004F093FF07A825F09EFB684625F063
:1007D0009BFB0B4A0B49200007F01AF8684625F0EE
:1007E00093FB200006F09EFA06F0C4FAF9E7C04633
:1007F000A8770410CC77041058760410BC76041047
:1008000091030010308B041010B50800910006F021
:10081000B1F910BD036889005858002800D000685D
:100820007047F0B5C64600B504000F6843689846A7
:100830001900380003F060FA0E002000FFF7EAFF0D
:10084000041E14D0002509E001352468002C0AD0CC
:100850004146606803F050FA8E4204D16368BB429F
:10086000F2D0002DF1D0280080BCB846F0BD0025A4
:10087000F9E710B508000C2106F07CF910BD10B5A1
:10088000FFF7F7FF10BD70B5050004E00C68280005
:10089000FFF7F5FF21000029F8D170BD10B5040065
:1008A0008168FFF7F0FF63689A000021206804F078
:1008B000CFFA0023E360A36010BD10B50400FFF77A
:1008C000EDFF2168626823001833994202D02000AE
:1008D000FFF79AFF200010BDF0B5C64600B5060030
:1008E000884617008B000268D058002813D004688F
:1008F00000E02C0063683A6893420CD02568002D14
:1009000008D07168686803F0F7F920008845F0D0D6
:10091000002000E0280080BCB846F0BD70B504009F
:100920000D000E684168300003F0E6F933002A003C
:100930002000FFF7D1FF002804D00068002801D074
:10094000083070BD01481AF06FFAC046F476041002
:1009500010B582B014000C2006F0ACFF0023036039
:100960002268019212684260836002B010BDF8B53F
:10097000040016008D0003685B59002B05D01B682E
:10098000136003685B591A60F8BD83681360826066
:100990001368002B06D007685868616803F0ACF94B
:1009A00089007E50236808345C51EDE770B58023E0
:1009B0009B0599420AD28C00200006F07BFF0500BF
:1009C0002200002104F044FA280070BD1AF0DCF97E
:1009D000F8B5CE46474680B505000F00012907D07F
:1009E000FFF7E4FF8046AC680023AB6099460CE05B
:1009F00000238361183398468044F4E7894603E076
:100A0000126822601B681C603400002C18D0266815
:100A10003900606803F070F98B0043441A68002ABB
:100A2000EED1AA682260AC602A0008321A602368FE
:100A3000002BE3D04B469B004246D4508946E3E767
:100A400029686A682B001833994202D02800FFF702
:100A5000DBFE6F6043462B60C0BCB946B046F8BDB4
:100A600070B5040015000022FFF7B2FF09E006F0A0
:100A70004FFA2B68636106F0E5FE06F083FA06F094
:100A800079F970BDF0B587B0040015001E00436908
:100A9000059303AF010010310D9B0093C3684268BA
:100AA00038001AF079FA3B78002B0AD10C9A290009
:100AB0002000FFF75CFFE3680133E3600C9807B0A8
:100AC000F0BD05AA04992000FFF7CAFF6168300055
:100AD00003F012F90D00E9E7F0B587B004000D004E
:100AE0000F684168380003F007F90E003B002A0048
:100AF0002000FFF7F1FE002805D00068002802D092
:100B0000083007B0F0BD0495029405AB04AA0D4966
:100B10002000FFF71DFF03900123019300903B008D
:100B2000320029002000FFF7ADFF002303930830B7
:100B3000E7E70399002902D00298FFF7A0FE06F02C
:100B400019F9C046AC77041030B587B004000D0029
:100B50000800FFF79CFC2800FFF730FC011C01A8EF
:100B600005F008F823001833236001226260002397
:100B7000A360E360FE21890521616361A3610592A1
:100B800005A92000FFF74DFE002803D1082006F03C
:100B900091FE0CE00123049304A92000FFF7BEFEA0
:100BA00000680028F2D003685B689847EEE705000C
:100BB0000E4B03600E4B0360029B436001230393C3
:100BC00003A92000FFF788FF08E02000FFF775FE6B
:100BD000074B0193054B019306F0CCF80560044BDD
:100BE0000193024B0193200007B030BD88770410B9
:100BF0009877041010B5040003000A4A04C3406843
:100C000022000C32904203D09968013105F0B2FF06
:100C1000200006F007FA1C21200005F0ABFF2000A1
:100C200010BDC046508B041010B502490120FFF7DB
:100C300095FB10BDFFFF000070B504000D000128FA
:100C400005D0002C02D1074B9D4207D070BD054B4B
:100C50009942F6D1044807F09FFCF2E7024807F0FA
:100C6000ABFCF3E7FFFF00005436002070B5040032
:100C70000D000E684168300003F03EF833002A0092
:100C80002000FFF729FE002804D00068002801D0CA
:100C9000083070BD01481AF0C7F8C046F476041059
:100CA00010B502490120FFF7C7FF10BDFFFF00008C
:100CB000F0B5CE46474680B5C1B002AF052204214B
:100CC0004C23F81805F002FC794AF96C40243819D5
:100CD00005F0F8F9052150231D00F81804F0A8FCD0
:100CE0007B191A7839192823F818FFF73BFD2423BC
:100CF000FB18FB6001233B6100237B61BB61FE228B
:100D00009205FA613B627B6278E039190C2578190B
:100D100005F005F9381905F006F801238822B918FD
:100D20000B607819FFF7A2FF0068002804D00023A9
:100D3000604A614905F022FF604B7B60604B7B603D
:100D40004368BB607823FB183B675E4A1100183983
:100D5000002370203818FFF729FC381D04F066FCCA
:100D60006E463B6F984603F089FF04000D00009427
:100D7000019542460021002002F030FF411C08305E
:100D8000C008C000331A9D4602AB98463A6F0094E3
:100D90000195180002F022FFE823FB18E022BA18A0
:100DA00013604346002B0CD040463BF0BDF80200D8
:100DB000424400234146E02004003818FFF7F6FBC8
:100DC00001E00122F5E7381905F026FA3B19186809
:100DD000E822BB18984203D01B68591C05F0CAFED4
:100DE000B546386F7823FB18984203D0BB6F591C67
:100DF00005F0C0FE324B7B60304B7B602823F91836
:100E000054243819FFF7A0FE7FE7B546012901D029
:100E100006F09EFC06F07CF80400A823FA182A4984
:100E2000AC26B819FFF7F0FB8C23FA1827490433D6
:100E3000F818FFF7E9FBC422BD1800949023FB18B3
:100E40007F3AB919280004F0E9FE214B2B6068684D
:100E5000D023FB18984205D0D023FB181B68591CDF
:100E600005F088FEC423F81806F0DCF89023F81883
:100E700025F04AF8AC23F81825F046F806F082F879
:100E8000AFE75423F81804F04EFF0C23F81804F0D1
:100E90004AFF104B3B64104B3B64104B3B6405F026
:100EA00069FF074B7B60054B7B60EEE7EDE7F0E702
:100EB00020A107004C7704103077041088770410C5
:100EC00098770410F0770410F47704104478041035
:100ED000508B04105C8C0410C0780410A0780410AF
:100EE00010B58300084A944663441C68402262405F
:100EF000C02414408022520113431C60C000034BE5
:100F00009C466044416010BD04C001400040014067
:100F100080000B4B9C46604400290DD00823002A1A
:100F20000CD004221343026853400C221340802249
:100F300052011043036070470023F0E70022F1E7FD
:100F400004C00140034B1B6802201840431E984117
:100F5000C0B2704700C00640EFF3108072B6034B7A
:100F60001B68002BFBD0BFF35F8F70472C0100D0B4
:100F7000BFF35F8F024B00221A6080F31088704726
:100F80002C0100D0F8B506000C001500FFF7E4FFB7
:100F9000E308F718F15C07222240012393400B423B
:100FA00005D1DBB20B433B70FFF7E2FFF8BD210038
:100FB000280001F053FD0000002307E0054A9A18BD
:100FC0009200BFF35F8F0021116001331F2BF5D911
:100FD0007047C04640000034054A1078431CDBB21D
:100FE0001370172B02D9130010221A707047C046D5
:100FF0003C130020074B9B68103080001950BFF352
:101000005F8FBFF35F8F044B0021196082F310885C
:101010007047C04600ED00E0240100D010B5091A69
:10102000081F0A4B9C466144094A914208D8C307ED
:1010300006D440104005400D064B184380B210BD49
:10104000054B064AA321064801F06EFCFC07000090
:10105000FE0F000000E0FFFFD8780410207B041092
:101060000879041010B5091A04394C08090B08D185
:101070004905490D064A11430180064B234343802D
:1010800010BD054B054AAB21054801F04DFCC0469B
:1010900000F0FFFF00F8FFFF3C790410F47A041021
:1010A0000879041001238340034A10681840431E46
:1010B0009841C0B27047C04600E100E0002904D06A
:1010C000034B1860034B18607047034B1860FBE735
:1010D00080E200E000E100E080E100E010B50123E3
:1010E00083401800FFF7EAFF10BD0000024B9B6829
:1010F00010308000C058704700ED00E070B504006B
:101100000D00EFF3108672B60C4B1B68002BFBD062
:10111000BFF35F8F2000FFF7E9FF094B984201D032
:10112000A84205D1320029002000FFF763FF70BDFF
:10113000044B054A8621054801F0F6FB240100D046
:10114000CD0100104C7904103C7B04100879041088
:10115000F0B5CE46474680B583B006000D00EFF3EC
:10116000108872B6564B1B68002BFBD0BFF35F8F05
:10117000544B9A6834001034A300D758524B9F4206
:1011800007D0AF4200D198E00197504BFB1A2F2BAC
:1011900009D9424639003000FFF72CFF03B0C0BC2C
:1011A000B946B046F0BD3000FFF77CFF8146002114
:1011B0003000FFF793FFBFF35F8FEFF30581002946
:1011C00001D08C4211D10123019C9C430022A368D1
:1011D000AB4212D00622A256002A0DDB53009B1808
:1011E0009B002200394CE418F1E73621384B394A8C
:1011F000FF31394801F098FB2200AB4256D1062559
:101200006557002D38DB6B005B199A002F4B9B183C
:101210009A68A260DA79E27106229A56A2719B79E5
:101220005BB2002B0FDA2D48A0806B005B199B008E
:10123000264AD3182A4A1178997115704946300008
:10124000FFF74CFFA5E7201D6B005B199B001F4AB1
:101250009B181A1D9B88D90A1C2907D15B055B15B1
:10126000023359005118FFF7D9FEDDE71D4B1E4A26
:10127000B121194801F058FB002912D1002A0ED0E3
:10128000FF239371194B9380154A1378A371184B60
:101290000E49641A644163431B0D1370CEE70A4F75
:1012A000F2E7201D1349FFF7DDFEC7E76A21124B65
:1012B000084AFF31084801F037FB034F69E7C04691
:1012C000240100D000ED00E0CD010010401300200B
:1012D000607A04100C7B04100879041001BD000032
:1012E0008F3A0020487A04102C7B041001BDFFFFC8
:1012F000AAAA00007A130020947A041070B5012184
:1013000001432E4BCB1A2F2B28D8EFF30583002B4C
:101310002BD0EFF3108C72B6294A1268002AFBD04A
:10132000BFF35F8F274A0400244D641B644162436E
:10133000120D54B2244A92689B00D2588A421BD0A4
:101340000022032A32D853009B189B001B49CB185C
:101350009B795BB2A3421FD00132F2E7C7211B4B3E
:101360001B4A49001B4801F0DFFA92211A4B184A28
:10137000FF31184801F0D8FA134A92681749D15042
:10138000174B1A7882711C70BFF35F8F0C4B0022D1
:101390001A608CF3108870BD0D00530099188900F5
:1013A0006918FF268E710F4A8A80E9E7D1210E4B1A
:1013B000074A4900074801F0B7FAC0464013002029
:1013C000240100D0AAAA000000ED00E09C7A0410DD
:1013D000D87A041008790410C47A0410CD010010E2
:1013E0008F3A002001BDFFFFD07A04100022044B89
:1013F00002E0044902C30132072AFAD97047C04605
:1014000000E400E080808080024B9C4661448900BB
:10141000016070474000003410B50400FFF7DCFDA8
:1014200001002000FFF7F0FFFF232371BFF35F8F60
:1014300010BD10B50400FFF7CFFD01002000FFF73D
:10144000E3FFFF23237100236371BFF35F8F10BDA0
:1014500070B505000C00080000F046FE09492000A8
:1014600000F086FDFFF7B8FD074B9C466044800006
:1014700068602C75D0231B061B786B75A400034B8A
:10148000E55070BD9517001040000034583800201A
:101490000A4B1A68EFF3108172B61368002BFCD068
:1014A000BFF35F8F054B1B68BFF35F8F00221A608D
:1014B00081F3108840BF002000217047783A002057
:1014C00010B5002922D003681B7B99421ED8174B08
:1014D0009C466144090183689C4661440C684968E4
:1014E000002A19D003681B7B9A4215D883680F48DD
:1014F0008446624412019A18106853680200012061
:101500008B4201D80ED00020C0B210BD084B094A52
:101510003C21094801F008FA054B064A3C210648DF
:1015200001F002FAA242EFD8EDE7C046FFFFFF0F3D
:101530009C7C0410A47E04106C7C041010B500295F
:101540001ED0037B99421BD84B005B18033B0468F9
:10155000A4466344002919D0002A1DD0914221D00D
:10156000002A25D0047BA24222D8046850008018AB
:10157000033820188170197800291FD11A7010BD06
:10158000104B114A6821114801F0CEF9104B114A55
:101590006F310E4801F0C8F90F4B0E4A70210B480D
:1015A00001F0C2F90D4B0B4A7121084801F0BCF95A
:1015B000044B054A6821054801F0B6F941701A70DC
:1015C000DDE7C046C07C0410107F0410DC7C0410F2
:1015D0001C7D0410EC7E0410287D0410347D041062
:1015E00070B506000D001400002914D0002A14D094
:1015F000806873689847002806D0220029003000D0
:10160000FFF79CFF280007E02A0021003000FFF7C9
:1016100095FF200000E0100070BD0800FCE700000E
:10162000F0B583B00500009201930AAB1C780BABB8
:101630001F78002C26D003685A7B944207D10123DF
:10164000002B19D1002C3BD1200003B0F0BD002CA1
:101650000CD01A7B944209D81A6863001B19033B0B
:10166000D3189B78002BEBD00123E9E73E4B3F4A90
:1016700068213F4801F058F93E4B3F4A67213F48F7
:1016800001F052F903689C7B002CDBD012D01A7B4E
:1016900094420FD862001219033A19688C466244CA
:1016A00051789973002900D1D97300239370537036
:1016B0001370C7E72C4B2D4A68212D4801F034F9EF
:1016C000002C3AD02B681B7B9C4236D82C4BE3185D
:1016D0001B01AA6894466344009A1A60019A5A60F2
:1016E000089A9A60099ADA602E68002C2BD030D0C4
:1016F000337B9C422DD863001B19033B3268944610
:10170000634400229A705A701A70717B2200300074
:10171000FFF766FF7073844200D095E7287D009A3A
:10172000019B00F06DFC061E01D0002F17D00C9B12
:10173000002B00D188E71E7086E7124B124A3C212D
:101740000E4801F0F1F8114B114AA521084801F0AB
:10175000EBF8054B054A6821054801F0E5F82868D3
:10176000210000F085FEE2E7C07C0410107F041029
:10177000DC7C04104C7D04101C7F04106C7C041075
:10178000FFFFFF0F9C7C0410A47E0410687C0410F3
:10179000007F0410F0B5DE4657464E464546E0B59C
:1017A0008BB00990002308938200B54BD6583700C0
:1017B00052E0B44BB44A3F21B44801F0B5F8B44B01
:1017C000B44A3C21B44801F0AFF8002901D1002807
:1017D00069D10021404600F041FEA04219D12A689B
:1017E0006B6806920793AB689846EB689A46434647
:1017F000002B14D0002C18D03B681B7B9C4214D8C3
:10180000631EFA68D35C08931B02184338610020FA
:1018100015E0A24BA24A8E219F4801F085F8A14B0A
:101820009F4A92219C4801F07FF8994B9E4A4121A2
:10183000994801F079F800239A46984600207B6881
:10184000BFF35F8F00221A6086F310884346002B97
:1018500032D1002800D10CE100F046FB02000B1E43
:10186000A7DB00200021069007917868EFF310862F
:1018700072B601680029FCD0BFF35F8F39688846D3
:101880004C7B002CD7D09AD0097B8C4297D88749C3
:1018900065182D01B9688C46654428686968801A06
:1018A0009941002991DD2A686B68099800F0A8FB2E
:1018B00000239A469846C2E7089B1B022343994699
:1018C00051461800C04705000E007A68EFF3108BF0
:1018D00072B6136859424B41D9B2002BF9D1BFF30C
:1018E0005F8F002E1EDB002E46DD3B69002B47D0AC
:1018F0004B456DD100F0F8FA02000B1E6EDB521959
:101900007341002B70DB002B72DB0021049101314D
:101910000391029451460191414600913800FFF72E
:101920007FFE4CE03B69002BDDD04B4514D1069A7D
:10193000079B521BB341002B14DB002B16DB00214D
:101940000491013103910294514601914146009165
:101950003800FFF765FE32E0554B514AA1214E4851
:1019600000F0E2FF01225242524BE6E7454B464A65
:101970003F21464800F0D8FF002E01D1002DB4D100
:101980003B68002C50D05A7B944237D1012100296A
:101990004AD1DA7B002A4DD19A7B002A03D1DA7B27
:1019A000002A5AD19C73DC73002C5CD03B681B7BF3
:1019B0009C4258D8FA68013C135D0133135500234B
:1019C0003B617A68BFF35F8F13608BF3108843E746
:1019D000374B334AA421304800F0A6FF294B2A4A4E
:1019E0003F212A4800F0A0FF01225242314B8AE7F2
:1019F000244B254A3F21254800F096FF002C0DD0AE
:101A00001A7B94420AD862001219033A1868844675
:101A100062449278002ABAD00121B8E7264B274ABF
:101A20006821274800F080FF264B274AF6212448EA
:101A300000F07AFF002A0AD0197B8A4207D85100A9
:101A40008A18033A19688C4662445470A4E71A4B0A
:101A50001A4A68211A4800F067FF1C4B1A4AFB21FA
:101A6000174800F061FF0A4B0F4A41210A4800F075
:101A70005BFF0BB0F0BCBB46B246A946A046F0BD2A
:101A800058380020A47B0410707E0410C07B041022
:101A90009C7C0410A47E04106C7C0410747D0410E3
:101AA000887E04108C7D0410C87E0410FFFFFF0F99
:101AB000987D0410FFFFFF7FC07C0410107F04108E
:101AC000DC7C0410D47D0410DC7E0410F87D04104E
:101AD00010B50C4B5B68002B04D00A210A48FFF7B5
:101AE00093FC10BD074C2300084A1021206800F029
:101AF000C5FB032000F0ECF903212000FFF7A8FC50
:101B0000EBE7C04688130020783A0020C11400108B
:101B100010B5064B5B68002B01D0044810BD044B88
:101B2000044A5E21044800F0FFFEC04688130020EE
:101B30000C7E0410B07E04106C7C0410F0B5DE4600
:101B400057464E464546E0B58BB0804616001F000E
:101B5000149B9A46159B994616AB1B789B461F23F0
:101B600002AA9446634400221A702BE0002809D090
:101B700042461268127B904204D8421E4146C96810
:101B80008A5C41E0404B414A4121414800F0CCFE93
:101B900007984CE0361BAF41002F07DB002F11DA0E
:101BA0003C4B3D4A3F213D4800F0BEFE01267642B7
:101BB0003B4FF3E7374B384A3F21384800F0B4FE3B
:101BC000002F4FDB43465A68EFF3108472B6136858
:101BD00059424B41D9B20791002BF8D1BFF35F8F27
:101BE0001F3302AA94466344049300230393029391
:101BF0004B4601935346009332003B004046FFF7AB
:101C00000FFD031EB2D1020041464968BFF35F8F4A
:101C100000250D6084F31088002B29D01F2302A912
:101C20008C4663441B78002BB2D112021043002B68
:101C300020D05B46002B1DD04946D04704000D0044
:101C400003000B431DD00029A4DB00F04DF9060072
:101C50000F1EAFDB36196F41002FB1DA0126764235
:101C60000F4FADE70B4B0C4A3F210C4800F05CFED8
:101C7000012040420BB0F0BCBB46B246A946A0468C
:101C8000F0BD0798F6E7C0469C7C0410C87E04109F
:101C90006C7C0410A47B0410707E0410C07B0410C4
:101CA000FFFFFF7FF8B504004268EFF3108572B6BE
:101CB000136858424341D8B2002BF9D1BFF35F8F6C
:101CC000CBB22268567BB3421BD10120002848D0FA
:101CD000206988422BD0090AC9B2002B2ED0206877
:101CE000007B83422AD8581EE668305C88422BD09D
:101CF00000206368BFF35F8F00221A6085F31088AD
:101D0000F8BD002B0DD0167BB3420AD85E00F61842
:101D1000033E1768BC466644B678002ED6D0012034
:101D2000D4E7134B134A6821134800F0FDFD9521B9
:101D3000124B134A4900134800F0F6FD124B134AA8
:101D40004121104800F0F0FD1900100000F090FB58
:101D50000028CED132210E4B094AFF31094800F04C
:101D6000E3FD23698B42C4D100232361C1E7C04650
:101D7000C07C0410107F0410DC7C0410307E041042
:101D8000587E04106C7C04109C7C0410C87E0410E7
:101D9000547E041070B584B005000C00EFF3058389
:101DA000002B1ED1FFF7B4FE002302930193224BB8
:101DB00000932A002300FFF7C1FE061E23DD20BF8B
:101DC000FFF7A6FE3100FFF76DFF1C4B5B6A9C42DC
:101DD0002DD81A4A926AAA422CD29C4225D00120C0
:101DE00026E0164B5B6A994209D8144A926A8242ED
:101DF00007D2994201D001201AE0002018E000200B
:101E000016E0012014E00D4B5B6A9C4209D80B4A96
:101E1000926AAA4207D29C4201D0012008E0002029
:101E200006E0002004E0012002E0002000E00020A5
:101E300004B070BD0120FBE7911400100040054084
:101E400070B5EFF305801038EFF3108C72B61A4BB3
:101E50001B68002BFBD0BFF35F8F01221300834070
:101E600016494B6316490B60164909780C00C440AB
:101E7000224214D0114A546A8200134D525994429E
:101E800006D38200114C125999430E4B197007E08A
:101E90000A4A031D9B0099589950002200E0002235
:101EA000BFF35F8F044B002119608CF31088002A68
:101EB00000D0904770BDC046280100D000400540CA
:101EC0003C700540903A00207C3A0020CC3600203F
:101ED00010B50100024A0348FFF754F810BDC04690
:101EE000407F04108E3A0020044B5B6A034A906ADC
:101EF0001900536A9942F9D17047C0460040054025
:101F0000084B5B6A01E0074B5B6A8B42FBD301E045
:101F1000044B5B6A8B4203D1024B9B6A8342F7D32B
:101F20007047C0460040054070B504000D00FFF743
:101F3000DBFF02000B0020002900801859418B4272
:101F400002D804D1824202D901204042C11700299F
:101F500002DBFFF7D5FF70BD024B034A3F21034868
:101F600000F0E2FCA47B0410DC7F0410C07B0410B2
:101F700070B504000D00EFF3108672B61B4B1B68A2
:101F8000002BFBD0BFF35F8F002D1CD02000FFF78C
:101F9000ADF8174B83420BD019002000FFF7AEF8C5
:101FA00001212000FFF79AF80123A340114A136092
:101FB000A400114BE550BFF35F8F0C4B00221A6059
:101FC00086F3108870BDA2000B4B0021D150012276
:101FD000A2400A490B7893430B7005492000FFF794
:101FE000B7F800212000FFF779F8E4E7280100D0D6
:101FF000411E001038600540CC360020903A002089
:10200000F0B5DE4600B584B00400150001921E0054
:102010000293FFF769FF03958E4202D84ED18542A5
:102020004CD9EFF3108B72B6274B1B68002BFBD0FB
:10203000BFF35F8F254A17780125A540EBB23B43DC
:102040001370234B5D63221D92000199D150A200B1
:102050002049029850501B6A2B4212D11C4B1B6C1A
:102060002B4208D00020BFF35F8F174B00221A606D
:102070008BF3108823E0184B184AC521184800F04C
:1020800053FCFFF731FF8E4214D802D1039B8342E9
:1020900010D80E4B1B78BB420ED00D4B1D625D63FA
:1020A0001F2004400123A3400E4A1360074B1F70FA
:1020B0001E38D8E70020D6E70120D4E7012004B07D
:1020C00080BCBB46F0BDC046280100D0903A00203D
:1020D000004005407C3A0020647F0410C07F04105B
:1020E000887F041080E200E0EFF3108C72B60B4B97
:1020F0001B68002BFBD0BFF35F8F01238340084A8E
:10210000136208490A789A430A70BFF35F8F034B42
:1021100000221A608CF310887047C046280100D056
:1021200000400540903A002010B500291ED0037BE6
:1021300099421BD84B005B18033B0468A4466344D8
:10214000002919D0002A1DD0914221D0002A25D083
:10215000047BA24222D8046850008018033820185B
:102160008170197800291FD11A7010BD104B114AC7
:102170006821114800F0D8FB104B114A6F310E480E
:1021800000F0D2FB0F4B0E4A70210B4800F0CCFB45
:102190000D4B0B4A7121084800F0C6FB044B054A61
:1021A0006821054800F0C0FB41701A70DDE7C046A9
:1021B000C07C0410D8800410DC7C04101C7D04104A
:1021C000C4800410287D0410347D041070B506000E
:1021D0000D001400002914D0002A14D08068736800
:1021E0009847002806D0220029003000FFF79CFF06
:1021F000280007E02A0021003000FFF795FF2000AB
:1022000000E0100070BD0800FCE7000010B50023DE
:10221000437301338373037BC3730123027B9A42AD
:1022200014D9002B0CD0027B934209D85A00D21843
:10223000033A01688C4662440133DBB25370EDE728
:102240000B4B0C4A68210C4800F06EFB002A09D0A9
:10225000924207D8016853009A18033A8A1800235B
:10226000537010BD024B034A6821034800F05CFB29
:10227000C07C0410D8800410DC7C041010B50173FD
:1022800042608360FFF7C2FF10BD000070B504001C
:10229000081E00D170BD002934D0237B994231D86B
:1022A0004B005B18033B2268944663445A78002A2B
:1022B000F0D02DD0237B9A422AD853009B18033BA1
:1022C00021688C4663445D7800215970002825D030
:1022D000237B984222D843001B18033B21688C467D
:1022E00063440021597001002000FFF76FFF0600D2
:1022F00029002000FFF7CAFF020031002000FFF78D
:1023000065FFC7E7084B094A6821094800F00CFB44
:10231000054B064A6821064800F006FB024B034ABB
:102320006821034800F000FBC07C0410D880041032
:10233000DC7C041070B505000C00160000292FD0BD
:1023400034D0037B994231D84B005B18033B0268C1
:10235000944663445A78002A2ED19A78002A31D1C3
:102360001978FFF793FF0300002E0AD0EA7B002ABA
:102370002ED1AA7B002A03D1EA7B002A3BD1AC7381
:10238000EC73002B3DD1002C4FD02B7B9C424CD8C2
:102390002B6861000C19033C1C190023637070BD8D
:1023A000254B264A3821264800F0BEFA254B264AFE
:1023B0006821264800F0B8FA254B204A3A212048E7
:1023C00000F0B2FA234B1D4A3B211D4800F0ACFA45
:1023D000002A0AD0297B8A4207D851008A18033A7A
:1023E00029688C4662445470C3E7164B164A68212C
:1023F000164800F099FA184B104A4221104800F094
:1024000093FA002B0BD02A7B934208D843001B1869
:10241000033B2A689446634400229A70B3E7094B51
:10242000094A6821094800F07FFA064B064A6821EC
:10243000064800F079FAC046F47F0410B08004101A
:10244000FC7F0410C07C0410D8800410DC7C0410D5
:102450002C80041054800410F87D041070B5040022
:102460000A00457B2900FFF765FF6073280070BDF7
:1024700070B50400002967D0437B8B420ED0002941
:1024800011D0037B99420ED84B005B18033B0268C6
:10249000D0188378002B0CD1002056E00121FFF7E3
:1024A000DDFF012051E0294B294A6821294800F02D
:1024B0003BFA002B20D0227B93421DD85A00D31820
:1024C000033B2268D2182568EB5C8B421AD0002BA4
:1024D0001BD0227B934218D85A00D318033B2268A2
:1024E000D21853788B4216D0002BF0D11A4B1B4ACE
:1024F0006B211B4800F018FA144B154A6821154847
:1025000000F012FA4378137007E0104B104A68216C
:10251000104800F009FA4378537000238370437029
:1025200001222000FFF706FF0200617B814205D0F7
:102530002000FFF74BFE6073012006E0094B074ABD
:102540007121074800F0F0F9002070BDC07C041034
:10255000D8800410DC7C0410D07A04109880041019
:10256000FC7F041078800410F8B5DE4657464E46CE
:102570004546E0B505000F0092460A9A93424ED3B5
:102580001A0E91461E020A9A00233000494601F0B5
:10259000F1FB80466C006419A4002F4B9C466444F8
:1025A0006368834200D260602B1FDBB29B46012B25
:1025B0003BD9C0239B012343802212011A60AB0048
:1025C000264A9958002905D0506901F095FB013041
:1025D0000138FDD153465A0123685A40E0231A407E
:1025E00080235B0123431A605A46012A28D980239D
:1025F0009B012343802212011A60434663604246D6
:1026000000233000494601F0B5FBAD00134B585193
:102610000120F0BCBB46B246A946A046F8BD104B0F
:10262000104A2D21104800F07FF9012FC1D1C0239D
:102630009B01234303221A60A368DB07FCD5C9E78B
:102640002168794003220A401A60A2680123BB4036
:102650001342FAD0CBE7C04600800040DC370020B0
:10266000E480041034810410F880041030B583B085
:102670000C2000F017F9FEF765FC00280DD00023B0
:1026800004E099002D4A2E4888500133092BF8D9CF
:102690002A4B2C4A5A6203B030BD2B4B00229A675A
:1026A00000F008F9294B01221A60274B5B6C012BC3
:1026B000FBD1274B03221A60234B9B6B012BFBD1D1
:1026C000013300930433234A0121234800F054F8D6
:1026D00005230093214A0121214800F04DF8214BA8
:1026E0000093002202210420FFF73EFF1E4D0095BB
:1026F0002B00002201210520FFF736FF104C00942B
:102700002300002200210720FFF72EFF0094230062
:10271000002200210820FFF727FF0A4B0093230027
:10272000002200210920FFF71FFF00952B00002247
:1027300000210620FFF718FFADE7C046DC37002078
:10274000006CDC021BB70000008000403CB0004081
:1027500030B00040002F685900800240008C86474E
:1027600000C00240001BB700405973078000014BB6
:10277000C0587047DC370020F0B5C64600B50400ED
:102780000D00170098460C2001F0B6FA0600394BF0
:10279000FA18394B9A4241D843011B1A9901C91AB8
:1027A000C90009188901380001F0A6FA0200103AA0
:1027B00098235B009A4237D84346013B062B39D811
:1027C000069B013B062B35D83F09B74238D3434619
:1027D0001E04069B1A0316432368002B36DB274B87
:1027E0009C4244D080225201254B1A60254B1A602E
:1027F000254B9B6811009943FAD12560A060231DE9
:10280000C02292011A43212313602368002BFCDAB3
:10281000E6600823136080BCB846F0BD1B4B1C4A21
:1028200011211C4800F080F81B4B194A1921194846
:1028300000F07AF8194B164A1C21164800F074F87B
:10284000174B134A2321134800F06EF822683F23E8
:102850001340AB42C3D1A3681B051B0D8342BED1FD
:10286000E368EE22D2021340B342B8D1D3E780220C
:102870009201B9E780E84BD380F8A93200C002404A
:1028800000E0004000F0004000C00040448104101F
:102890005C820410A4810410D8810410F481041017
:1028A0004082041080239B000343014AD362704797
:1028B00000800540064BAA2212011A602F22DA601E
:1028C000044B054A1A60024B5B68002BFBDA704729
:1028D000004002400060024000B0FA0000BEFDE788
:1028E00003000A4A1268002A08D0084A1068C31870
:1028F000074A9A4206D3054A13607047034A0549BE
:102900001160F2E701204042F7E7C046503800204E
:1029100000000420943A002000207047012040422B
:10292000704710B5FFF7DAFF10B582B00C00190040
:10293000002A0CD0084B002A0BD0019200932300F0
:102940000200064802F03EFC0120FFF7C7FF044BDF
:10295000F1E7034AF1E7C046688204107882041068
:10296000F077041070B52B4B2B4A1A602B4B2C4A76
:102970001A602C4B9A682A4B9343FAD12A4C01E0F7
:1029800008CC9847294B9C42FAD3FFF76FFE234BA4
:10299000274A1A60234B9B68DB43DB01FAD1254BA6
:1029A00040229A675A671A67DA66234C09E0234B7C
:1029B000234A86212348FFF7B7FF2000FEF72CFDAE
:1029C0000834214B9C4209D22368002BF5D0012BFF
:1029D000EDD12000FEF72DFD0834F2E71B4CA16875
:1029E0001B4DC022280002F039FAA560EFF30583E1
:1029F000002B00D000BEFEF7DFFAFEF7F7FCFFF772
:102A000067F8144C01E008CC9847134B9C42FAD36A
:102A100070BDC04600E00040BFCDFBFE00F00040AE
:102A2000FE7F3C0000C00040901E0020A01E002041
:102A3000FFFFFF0100F00140881E0020A882041063
:102A400010830410C8820410901E002000ED00E0E6
:102A500000000020A01E0020D41E00200FB400B5EE
:102A600083B0084802F07EFB049B002B07D005A929
:102A70000191180002F086FB034802F073FB01206D
:102A8000FFF72CFF00830410548F04109A4200D2E9
:102A900088547047704710B5002802D00B68496809
:102AA000984710BD0100002007E083001B185B0061
:102AB000501C08601078C01830380A681378303B12
:102AC000DBB2092BF1D97047F0B5DE4657464E46CA
:102AD0004546E0B583B093461F000C9B9A460D9C7B
:102AE0000E9B99460F9B9B0703D0B8460F0006002C
:102AF00022E00192A34688464E46B9460700B442FA
:102B000007D2551C4B4641462020B84701342A00C5
:102B1000F5E73D004F465C46019B9B46B146464665
:102B2000B84637002E0007E0013C551C5346185D9F
:102B300043463900B0472A00002CF5D135003E004D
:102B400047460F9B9B0707D4100003B0F0BCBB4661
:102B5000B246A946A046F0BDB0464E46B9462F0043
:102B60005D46531BB342EFD2541C4B4641462020D6
:102B7000B8472200F5E7F0B5CE46474680B585B0A8
:102B8000944698460C9D0D9C0EAB1B789946109A66
:102B9000119B129EB7071CD4002B0CD0F7070AD547
:102BA0004F46002F02D10C37374204D0013B02E0E0
:102BB00030272F550134944201D21F2CF8D9F70742
:102BC00007D59C4205D21F2C03D830272F5501343E
:102BD000F5E7F70615D5770505D4002C03D0944208
:102BE00024D09C4222D00F9A102A2BD00F9A102A60
:102BF00030D00F9A022A35D01F2C02D830222A5505
:102C000001341F2C05D84A46002A31D02D222A55DE
:102C10000134039602930194009543466246FFF700
:102C200053FF05B0C0BCB946B046F0BD621E012CD2
:102C300006D00F9F102F01D01400D4E7023CD2E73A
:102C40001400D0E7B206D1D41F2CCFD878222A5551
:102C50000134D1E7B206CCD51F2CCAD858222A5548
:102C60000134C9E71F2CC7D860322A550134C3E7A5
:102C7000720703D52B222A550134CAE73207C8D57B
:102C800020222A550134C4E7F0B5DE4657464E46A9
:102C90004546E0B593B081468A46089209931CAB3D
:102CA00010CB1B789B461E9D219B9846002C03D180
:102CB000102342469A4390468023DB0046461E403E
:102CC00042461A4212D0002C22D000260EE03033A9
:102CD000D9B2771C0AAB99552900200001F00CF8F5
:102CE000AC4216D31F2F14D83E0004002900200048
:102CF00001F002F8CBB2092BE9D94246920605D57C
:102D00004121C918C9B20A39C9B2E2E76121F8E71D
:102D1000270043460693209B05931F9B049303952E
:102D20005B46029301970AAB0093099B089A5146B0
:102D30004846FFF720FF13B0F0BCBB46B246A94699
:102D4000A046F0BDF0B5DE4657464E464546E0B5D6
:102D500095B0089009910A920B931E9E1F9C20AB80
:102D60001B789B46229B9946239D269B9A463300BF
:102D7000234303D1103352469A4392468023DB000B
:102D800057461F4052461A4219D0330023432DD0D4
:102D9000002714E03033DAB27B1C98460CABDA55CE
:102DA0004A462B003000210000F0E4FFA5421FD866
:102DB00019D043461F2B1BD8474606000C004A4635
:102DC0002B003000210000F0D5FFD3B2092BE1D950
:102DD0005246920605D54122D218D2B20A3AD2B250
:102DE000DAE76122F8E7B145E3D901E0002398462C
:102DF00053460693259B0593249B04934B460393CC
:102E00005B460293434601930CAB00930B9B0A9ADB
:102E100009990898FFF7AFFE15B0F0BCBB46B24663
:102E2000A946A046F0BD0000F0B5DE4657464E4626
:102E30004546E0B591B083468A460C9298461A9C66
:102E400008941B9D099522002B002000290001F009
:102E500024FA002800D0E5E001225242D74B20009E
:102E6000290001F015FA002800D0DBE001225242CF
:102E7000D34B2000290001F0F5F9002800D0D1E063
:102E800000220023089E3000099D290001F0EAF984
:102E9000002800D0DDE0089809990690079180236A
:102EA000DB001E9A1A400D921E9A1A4201D1062387
:102EB0001C930698079904000D000A0006000243BF
:102EC00000D1D1E0080D4005400DBE4CA446604441
:102ED0000A03120BBC4B13431F0001F0F1F9BB4A6C
:102EE000BB4B01F074F9BB4ABB4B01F049F904003C
:102EF0000D000022B94B3000390001F038F9B84A12
:102F0000B84B01F064F902000B002000290001F029
:102F100037F901F0EDF9814601F0D2F904000D0016
:102F2000B14AB24B01F053F90022B14B01F028F93C
:102F300001F0DEF90600AF4AAF4B2000290001F096
:102F400046F904000D00300001F0BAF9AB4AAC4B71
:102F500001F03DF902000B002000290001F007F903
:102F600004000D0002000B0001F031F90A900B91F2
:102F7000A44BF31800261F0522002B002000290077
:102F800001F0FEF80E900F9122002B00002080210E
:102F9000C90501F0ECF804000D0000229A4B0A98D4
:102FA0000B9901F0F6F80022984B01F0E9F80200C5
:102FB0000B000A980B9901F0ECF80022944B01F0F9
:102FC000DFF802000B000A980B9901F0E2F802000A
:102FD0000B002000290001F0D3F802000B000E982E
:102FE0000F9901F0D6F80022774B01F0C9F83200B2
:102FF0003B0001F0ECF806000F0004000D00069AFB
:10300000079B01F045F9002830D001235B429C4624
:10301000E14400227D4B3000390001F0BAF8040091
:103020000D0023E01E9B04931D9B03931C9B0293A6
:10303000089A099B0092019343460C9A51465846C0
:1030400000F0FCF811B0F0BCBB46B246A946A04661
:10305000F0BD0023002406930794069680231B06E8
:103060009C46654407951AE7002399464B4663330F
:10307000C62B1ED804261E9B1B0526D52B002343DA
:103080000FD0644A644B0698079901F0F9F80028BC
:1030900079D00022614B0698079901F0E3F80028E7
:1030A00071D01C9B4B4506DD4A46981A431E1C9363
:1030B00003E00526DFE700231C938023DB001E9A34
:1030C0001A431E920026002399461D9B9E4264D2FD
:1030D0009F1B02231E9A1A400A921E9A134202D084
:1030E000002E00D000274B46002B07D022002B00DB
:1030F0000698079901F04DF80690079100220023E9
:103100000898099901F0AEF8002848D1444B1E9A5E
:103110001340049303971C9B0293069B079C009308
:10312000019443460C9A5146584600F087F8002E09
:1031300000D187E71E9B9B063DD54525441C434691
:10314000020051462800D8474B46DA179B185340D7
:1031500005220592013E0496002203920A32029251
:103160004A46D00F019000934346220051465846EC
:10317000FFF78AFD0A9B002B00D163E702005F4640
:103180000C9E1D9D54E01C9B002B9ED00D9B002B84
:103190009BD01C9B013B1C9397E7002799E7069C5B
:1031A000079D2200290080200006844661440B0010
:1031B00006920793AAE76525C0E7C046FFFFEF7FA9
:1031C000FFFFEFFF01FCFFFF0000F03FFB799F5086
:1031D0001344D33FB3C8608B288AC63F0000F83F32
:1031E00061436F63A787D23F71A379094F930A4068
:1031F0000000E03F1655B5BBB16B0240EF39FAFE57
:10320000422EE63FFF03000000002C400000244057
:10321000000018402D431CEBE2361A3F80842E41FB
:10322000FFF7FFFF541C434651462020B8472200B9
:10323000931BAB42F6D3100004E7C046F0B5DE4660
:1032400057464E464546E0B595B0069007919346E1
:103250009946209F1E9A1F9B1000190001F01DF82F
:10326000002831D101225242BF4B1E981F9900F015
:10327000F9FF002837D101225242BC4B1E981F99FA
:1032800001F006F800283DD10022B94B1E981F9985
:1032900000F0FEFF002850D10022B64B1E981F9967
:1032A00000F0E0FF002848D1002200231E981F995B
:1032B00000F0D8FF002850D100239846229B5B05E0
:1032C00000D4B6E0002458E0229B0393219B029394
:1032D00003230193A84B00934B465A46079906983F
:1032E000FFF7F2FB0EE1229B0393219B0293042341
:1032F0000193A24B00934B465A4607990698FFF755
:10330000E3FBFFE00423229A1A4022990B4210D0DB
:103310009B4B002A0FD004222299039121990291FC
:10332000019200934B465A4607990698FFF7CCFB4B
:10333000E8E0944BEDE70322EEE7229B0493219B08
:10334000039302971E9B1F9C009301944B465A4681
:1033500007990698FFF768FDD4E01E9A1F9B00208E
:10336000002100F004FF1E901F9101239846A5E75D
:103370000CAB30221A55013F01341F2C01D8092F04
:10338000F6D81E981F9900F0B3FF050000F098FFD3
:1033900002000B001E981F9900F0E9FEFA007A4B1C
:1033A0009B181A685B680A920B9300F010FF089054
:1033B000099100F0C1FF060000F07EFF02000B0043
:1033C0000898099900F0D3FE0890099100226F4BEC
:1033D00000F05EFF00282ED00136300000F06CFFB8
:1033E00002000B000A980B9900F042FF002801D060
:1033F00001350026002F2CD1280000F061FF0200CB
:103400000B001E981F9900F0B2FE06000F0000226C
:103410005E4B00F027FF002846D100225B4B3000B6
:10342000390000F035FF00283ED1EB073CD50135CF
:103430003AE0062746E70022544B0898099900F025
:1034400011FF0028D6D1002E01D0F307D2D50136C6
:10345000D0E7AA461F2C11D8013F0A21300000F006
:103460004BFC651C30310CAB19550A21300000F0C3
:1034700043FC092E0ED906002C00EBE755461F2C05
:103480000CD87B1E002F09D00CAA302111551F002B
:103490000134F4E72B0055461C00F0E71F2C03D83D
:1034A0000CAB2E221A5501341F2C10D80A212800EB
:1034B00000F0FAFB661C30310CAB19550A212800CC
:1034C00000F0F2FB051E01D03400EDE734000323C9
:1034D000229A1340012B1CD01F2C06D84346002BE8
:1034E00032D00CAB2D221A550134229B0393219B21
:1034F000029301940CAB00934B465A4607990698E9
:10350000FFF7E2FA15B0F0BCBB46B246A946A046AA
:10351000F0BD219B002B13D04346002B02D10C336E
:1035200013420FD0219B013B2193190003E00CAB08
:1035300030221A5501348C42CED21F2CF7D9CBE75A
:103540002199F8E72199F6E7229B5B0704D50CAB9C
:103550002B221A550134C8E7229B1B07C5D50CAB9B
:1035600020221A550134C0E7FFFFEFFFFFFFEF7F76
:1035700065CDCD4165CDCDC12C83041030830410C1
:103580002483041020830410188504100000E03FF9
:10359000F0B5DE4657464E464546E0B593B0824606
:1035A0008B4690461193002900D1EBE20027554647
:1035B000119B1878002800D1E7E2252809D07C1C4F
:1035C00043463A005946A847119B013311932700FF
:1035D000EEE7013311930024119A11780B00203B80
:1035E000D8B2102803D88300D048C3589F460B0098
:1035F000303BDBB2092B2CD92A292FD000230A9388
:10360000119B1A782E2A39D000239A46119A1378E2
:10361000683BD9B2122976D88B00C549CB589F4652
:1036200001231C4301321192D6E702231C430132CD
:103630001192D1E704231C4301321192CCE70823F5
:103640001C4301321192C7E710231C43013211922F
:10365000C2E711A8FFF726FA0A90D1E71C9B1A1DB2
:103660001C921868002804DB0A90119B0133119307
:10367000C6E702231C4343420A93F6E78022D200A6
:1036800014435A1C11925A781300303BDBB2092BB9
:1036900004D92A2A07D000239A46B7E711A8FFF7D2
:1036A00001FA8246B2E71C9B1A1D1C92186800287A
:1036B00004DB8246119B01331193A7E70020F8E752
:1036C00080235B002343511C119152786C2A01D056
:1036D0001C0018E0C0239B001C430131119112E033
:1036E00080232343511C11915278682A01D01C0079
:1036F00009E0C0231C430131119104E080235B00E9
:103700001C4301321192119B18780300253BDAB259
:10371000532A00D92CE29300864AD3589F4680232F
:103720009B001C4301321192EDE780235B001C4398
:1037300001321192E7E7782809D0582838D06F284D
:1037400038D0622838D010239C430A2600E0102687
:10375000582833D0692803D0642801D00C22944320
:10376000630501D50122944369282AD0642828D012
:10377000A30500D59FE0E30500D5B8E0630600D4BB
:10378000CAE01C9A111D1C911168FF220A40059481
:103790000A9B0493534603930296002301930092DD
:1037A00043463A0059462800FFF76EFA070027E023
:1037B0001026CDE70826CBE70226C9E720221443CE
:1037C000C8E7A30520D4E30550D4630666D51C9A48
:1037D000111D1C911168FF220A40D317D1185940BE
:1037E00005940A9B0493534603930296D20F0192C9
:1037F000009143463A0059462800FFF745FA070072
:10380000119B01331193D3E61C9BDA1D07218A43D8
:10381000110008311C91116853689C46DB170C930A
:103820000D930C9A0D9B100048400E906246534039
:103830000F930E980F990C9A0D9B801A99410E9038
:103840000F9108940A9B079353460693049600230E
:1038500005936346DA0F02920090019143463A00C5
:1038600059462800FFF76EFA0700C9E71C9A111D98
:103870001C911268D317D118594005940A9B0493E0
:10388000534603930296D20F0192009143463A00A9
:1038900059462800FFF7F8F90700B1E7230605D5D8
:1038A0001C9A111D1C910023D25E96E71C9A111DD3
:1038B0001C91126891E71C9BDA1D07218A431100B5
:1038C00008311C9108940A9B07935346069304966B
:1038D00000230593029313685468009301944346B0
:1038E0003A0059462800FFF72DFA070088E71C9A8E
:1038F000111D1C9105940A9B049353460393029651
:10390000002301931368009343463A005946280068
:10391000FFF7BAF9070073E723060DD51C9A111DAE
:103920001C9112681204120C31E7C046388304104F
:103930007C830410C88304101C9A111D1C9112680A
:1039400025E746281AD01C9B0733072293431A0009
:1039500008321C9204940A9A0392524602925C68BE
:103960001B680093019443463A0059462800FFF72C
:1039700065FC0700119B0133119319E620231C43BA
:10398000E1E7672801D0472802D180231B011C43AF
:10399000452801D0472801D120231C431C9B073315
:1039A000072293431A0008321C9204940A9A039245
:1039B000524602925C681B680093019443463A00A9
:1039C00059462800FFF730FA0700119B0133119385
:1039D000EEE502231A002240924623421FD0012422
:1039E0001C9B1A1D1C927A1C9146187843463A007B
:1039F0005946A8475346002B16D1119B013311930A
:103A00004F46D5E5561C434659462020B84723006B
:103A100032005C1C9D42F5D83D001700E0E7012311
:103A20003A002F000A9DF4E74A46A9460A9D06E09F
:103A3000571C434659462020C84734003A00661CAC
:103A4000A542F5D84D469146D7E71C9B1A1D1C92FE
:103A50001B6899465346002B00D1013B4E4601E0BE
:103A6000013613003278002A02D05A1E002BF7D1FB
:103A70004B46F21A10928023DB0026001E401C42A7
:103A800003D0524501D95346109302231A00224015
:103A90000B92234205D03A0037004C46A9465546C2
:103AA00020E03A00109B5F46B3462E0006E0551C0E
:103AB000434639002020B04723002A005C1C0A99A5
:103AC0009942F4D835005E46BB46109437004C4608
:103AD000A946554606E01D000134561C434659468A
:103AE000C84732002078002804D0002FF4D06B1E85
:103AF000002DF0D117004D460B9B002B03D1119BDD
:103B00000133119354E50A9F109B06E0561C43466F
:103B100059462020A847230032005C1C9F42F5D85C
:103B20001700ECE721231C431C9B1A1D1C921B68E9
:103B300000930594082304935346039310230293A0
:103B40000023019343463A0059462800FFF79CF8AA
:103B50000700119B013311932AE57C1C43463A0070
:103B600059462520A847119B0133119327001FE5D3
:103B70007C1C43463A005946A847119B01331193D8
:103B8000270015E50A4B9A4610E5AA46474502D399
:103B900043465A1E00E03A00434659460020D047AB
:103BA000380013B0F0BCBB46B246A946A046F0BDF3
:103BB000952A00100EB410B585B0010007AC08CCF2
:103BC00003940122009452420348FFF7E1FC05B040
:103BD00010BC08BC03B018478D2A00100CB410B5F7
:103BE00084B00A0006AC08CC039400940100044899
:103BF000FFF7CEFC04B010BC08BC02B01847C046AA
:103C00008D2A001000B583B0009313000A00010054
:103C10000248FFF7BDFC03B000BDC0468D2A00106E
:103C200000B585B0029003910121009313004A4230
:103C300002A90248FFF7ACFC05B000BD972A0010AE
:103C400001480421014B1847B0130020713C0010BB
:103C500010B5010018231B8814221088984710BD46
:103C600010B5010018231B8816221088984710BD34
:103C7000F0B5C64600B507000E00002501239846A2
:103C800000E00135B5420AD2AC003C192068FFF7CC
:103C9000DFFF20600028F4D100239846F1E740467A
:103CA00080BCB846F0BD0000124A936F9B0815D245
:103CB0009066D166002905D0FFE7FFE7FFE7516F67
:103CC000106F704704B580210906C21751400028C3
:103CD00000D0C84343F040FC002104BDF0B5146E91
:103CE000556E576F166FFFF7E3FF146655665767FB
:103CF0001667F0BD000000D0114A936F9B0813D2E5
:103D000010665166002905D0FFE7FFE7FFE7516F16
:103D1000106F704704B5002801D00020C04343F065
:103D20001BFC002104BDC046F0B5146E556E576FE4
:103D3000166FFFF7E5FF1466556657671667F0BD07
:103D4000000000D094464A4A926F9208624601D21F
:103D500028E0C046F0B5464E346E756E776F366F0C
:103D600000F020F89446424A146655665767166775
:103D70006246F0BD94463E4A926F9208624601D276
:103D800054E0C046F0B53A4E346E756E776F366FBC
:103D900000F04CF89446364A146655665767166725
:103DA0006246F0BD002B24DB11D000293EDA00B5BD
:103DB000C943404200D1013100F038F8C9434042C4
:103DC00000D10131DB43524200D1013300BD002A52
:103DD000EBD1002801D1002905D00020C90FC90767
:103DE00001D1C043410800B543F08EFB00220023FF
:103DF00000BD00B500290ADBDB43524200D101338C
:103E000000F014F8C943404200D1013100BDC9435C
:103E1000404200D10131DB43524200D1013300F076
:103E200005F8DB43524200D1013300BD002923D104
:103E3000002B18D1002A0CD0BC460D4F38667A668C
:103E400000210023FFE7FFE7FFE77A6F386F67463F
:103E50007047002801D00748010000B543F054FB2B
:103E60000022002300BD02000B000020002170474B
:103E7000000000D0FFFFFFFF002B00D0BFE0130CBD
:103E800028D1002AE7D080B4114F39667A66FFE75F
:103E9000FFE730B4040C7B6F396F1B0423433B6690
:103EA0007A66FFE7FFE7FFE7C04684B27B6F3D6FAE
:103EB0001B0423433B667A66FFE7FFE7C046002307
:103EC0002C042D0C7A6F386F00196941B0BC704713
:103ED000000000D0F0B594460025140E01D1120266
:103EE0000835140F01D112010435940F01D192004D
:103EF0000235D40F01D152000135D40B0134254FC6
:103F00007C66254C3C660E0C93B2FFE7FFE7FFE7AB
:103F10003C6F6643360C7703BE467343DF0B5B048E
:103F2000C01AB941130C7343DB18C91ACE08664393
:103F3000360CB64493B273431F0F1B01C01AB9412C
:103F4000130C73431F0B1B05C01AB941860D8F025A
:103F50003E436643360C092D24DB520A7243801A15
:103F60007703460A6643360C16235B1BDE40DF40B0
:103F7000BF1964466643821B704604350633010050
:103F8000D940A840C01900D30131A24206D2002373
:103F9000F0BD0000000000D0FFFFFFFF121B01304A
:103FA000F3D3F1E709277F1BFE406446A2B27243B8
:103FB000801A00D20139220C7243130C1204821AA7
:103FC00099410B007046043513370100F940A840B1
:103FD000801900D30131002B02D1A2420AD2F0BDD8
:103FE000013000D30131121BFAD2013BF8D1A242B9
:103FF00000D2F0BD013000D30131121BF7E7F0B55C
:104000001C0C00D080E00CB400251C0A04D11B025B
:10401000160E3343120208351C0B04D11B01160F78
:104020003343120104359C0B04D19B00960F33439C
:1040300092000235DC0B02D192185B4101351C0065
:10404000971864410134464F7C66464C3C660E0C22
:10405000FFE7FFE7FFE7C0463C6F6643360C770398
:10406000BE4697B27743C01B00D20139C01B00D2B5
:1040700001399FB27743C91BC91B170C77437E04D4
:10408000FF0B801BB941CE086643360C0C2D33DB89
:10409000B644120B1F053A431B0B97B27743C01B64
:1040A00000D201399FB27743C91B170C77433E04F6
:1040B0003F0C801BB941860D8F023E436643292782
:1040C0007F1BFE400C3D7746AF40BF1930BCA2B20B
:1040D000ABB272437343801A9941220C7243130CA2
:1040E0001204801A994102000B000137001BA941FC
:1040F000F9D2781E0021F0BD0C277F1BFE407746C9
:104100007F0BAF40FF19E0E700245D1C07D0144F80
:104110007D663966FFE7FFE7FFE7FFE73C6F95B293
:104120009EB265436643401BB141150C1E0C6543AE
:10413000664336042F0C3E432D04401BB141994287
:1041400004D202000B0020000021F0BD01D19042FA
:10415000F7D3801A994101349942F2D3F6E700006F
:10416000000000D0FFFFFFFF48404140484018B426
:104170001B4B5B68FC46019308BD04DF77450010CC
:1041800018B4174B1B68FC46019308BD00DF81453E
:1041900000109446134A926F920809D2624618B4EE
:1041A0000F4BDB68FC46019308BD0CDF394800105B
:1041B0000C4AF0B5146E556E576F166F6246FFF7D6
:1041C000EEFF084A1466556657671667F0BD18B4C7
:1041D000034B9B68FC46019308BD08DFDD460010D9
:1041E00074380020000000D0FFB5504042405040DD
:1041F00059404B40594000E0FFB5154F4C00640D4D
:1042000003D0BC4204D10C0314D80020090D0905C9
:104210005C00640D03D0BC4204D11C030AD8002208
:104220001B0D1B0501264B4009D44B4003D58B4287
:1042300000D18242FFBD9942FCD19042FFBD0B43A9
:10424000DB1803431343F5D0C9434918FFBD0000F1
:10425000FF07000000B5FFF7CFFF01D0002000BD31
:10426000012000BD00B5FFF7C7FF804100BDC0467B
:1042700000B5FFF7C1FF01D9002000BD012000BD3E
:1042800000B5FFF7B1FF01D9002000BD012000BD3E
:1042900000B5FFF7A9FF804100BD012040054A009D
:1042A000121804D85A00121801D8002070470120B3
:1042B00070470020704700000021002805D170479A
:1042C000C1174840401AFAD0C90713B5064B1B68FE
:1042D00098470CBC441CA2401005120B0349091B53
:1042E00009051943114310BD743900201F04000053
:1042F00010B54C00620D8023D218DB00D21A5B058A
:104300007E2A10DD9E3A13DACC17090349081943B7
:104310005242D140640001341532202A05DAD040DF
:104320000843604310BD002010BD0846604310BD27
:10433000C80FC018013810BD18B4044B5B6AFC46A6
:10434000019308BD24DFE949001000007438002003
:1043500018B4044BDB6DFC46019308BD5CDFF54AE5
:104360000010000074380020C94211D300B5490084
:104370004908002200F018F8002904D40022404225
:104380008A41114600BD80210906002000BD0000C1
:1043900018B4044BDB6EFC46019308BD6CDFF74993
:1043A000001000007438002018B4044B9B6FFC46CA
:1043B000019308BD78DF134A001000007438002014
:1043C00018B4044BDB6FFC46019308BD7CDF814AC7
:1043D000001000007438002070B513231C78012CE5
:1043E00014D0012C14DC022C02DC1F4A1F4B9A64EF
:1043F0001F48FFF72DFC1F4B186070BD99001A482D
:104400001A4A885001331F2BF8D9EAE70023FAE74C
:104410001948FFF725FC05001848FFF721FC023872
:1044200003789B007F2B19DD802229000F4800F0C4
:1044300015FD022CD7D1124B1A88B5231B029A42C4
:1044400009D1104B1A88104B9A4204D10F4B1A888D
:104450000F4B9A42C7D00020FEF700FB0D4B0E4ACF
:1044600032210E48FEF760FA3D45001074380020F6
:104470004C330000743900205344000053460000C0
:1044800054380000D8380000494600009C3800002D
:10449000594600006885041008860410C885041079
:1044A000F0B5C64600B506000F000B0D5B055A0DB2
:1044B000002B27D01F4BD2182CD43424A31A984693
:1044C000002B24DD203B9C4629D401256446A540D1
:1044D0002B0001254446A5402A0001246442E5172B
:1044E000A4185D41002903DA24184D4126002F004D
:1044F000002554429D413300234018003B002B40CF
:10450000190004E00022C90FCB071000190080BC7D
:10451000B846F0BD002909DA00200749F7E7202551
:104520004346ED1A0124EC402300D2E7002000218D
:10453000EDE7C04601FCFFFF0000F0BF07B5604695
:10454000002800D100BE01880A0A0230DF2AFAD111
:10455000C9B2820804D3028840880004104300E0F6
:104560000068024A5050039007BD000074380020D4
:104570000FB403BC0CBCF0B50124E407634000E0B9
:10458000F0B50C0DCF0F661E3605891B640503D3ED
:10459000C943404200D30131640D03D0661CF60AC2
:1045A00007D0E41B00207F00791C89078912803C1A
:1045B00024031D0DDF0F6E1E36059B1B6D0503D3F7
:1045C000DB43524200D301336D0D03D06E1CF60A5B
:1045D00007D0ED1B00227F007B1C9B079B12803DB8
:1045E0002D032F1B661B58D4A446202E46DA2037F5
:1045F0001400BC401D00BD40F24033412A438018E6
:104600005941CB0F05D0C943C043002264425041F9
:10461000514162464D0D28D10D0D07D100281FD004
:10462000241940414941013A0D0DF9D0640006D3E7
:10463000013000D30131002C01D140084000013A83
:104640000BD4941CE40A04D112051144DB0719446D
:10465000F0BDD907204B194300E0D9070020F0BD79
:104660000029DDD1002CDBD1F0BD0132C6074008A6
:10467000CD0728434908002EE1D0D9E73C2E29DA9E
:10468000203E40371400BC4000D00124F2401443C7
:104690001A00BB401C43D317ACE7AC46202F08DA06
:1046A00020360400B4400D00B540F840394128439D
:1046B000A5E73C2F0CDA203F40360400B44000D080
:1046C0000124F84004430800B1400C43C117EAE755
:1046D00010001900002494E70000F07FF0B50C0DE5
:1046E000661E3605891BE60A6405640D02D0651C4A
:1046F000ED0A04D0002001210905803C2403A446D2
:104700001C0D671E3F05DB1BE70A6405640D02D024
:10471000651CED0A04D0002201231B05803C240304
:104720007740644497B484B296B27443070C7E43D6
:10473000150C6F4380B26843361802D30120000481
:104740003F183004350C00197D41844688B29AB276
:1047500050430C0C62431F0C7C438EB27E43921973
:1047600002D301263604A4191604170C3618674123
:1047700001BC81B29AB25143040C62431B0C5C43EE
:1047800080B25843121802D30120000424181004E8
:10479000130C401863412D185E410020474106BCB0
:1047A00088B293B258430C0C6343120C544389B241
:1047B00051435B1802D301210904641819041A0C2F
:1047C000091862416D1856410020474118BCF90292
:1047D000720D1143F0026A0D1043ED020A0D03D170
:1047E0006D1940414941013B124E9B1B7600B3427B
:1047F0000ED26D0007D30130002671416646354365
:1048000001D1400840001B05C918E4072144F0BD50
:104810000BDA013306D1013004D101314F0D01D043
:104820004908F2E7E1070020F0BD0136310500201C
:10483000EBE70000FF030000F0B51C0D671E3F050D
:10484000DB1BE70A6405640D02D0661CF60A04D07F
:10485000002201231B05803C2403D0252D060026C1
:10486000F6432E661E096E66CE0FF619B446490051
:104870004F0D02D07E1CF60A03D000200021403FDD
:104880003F033E1BB600B444013F7F05C91B4908E6
:104890002E6F013676089C02950D25437543ED1366
:1048A0007543AD1301356D10F603761B0CB4CC02C5
:1048B000450D2C43A2B2B3B25A43270C7B43350CAF
:1048C0006F43A4B26C431B1902D3012424043F1983
:1048D0001C041D0CA4187D4124196D41009A91B24D
:1048E000ACB26143170C7C432B0C5F4392B25A432A
:1048F000A41802D301221204BF182204230C521858
:104900007B41019C6C431B19520ED9010A4344019F
:10491000A01A81B2B2B2514303145A43360C734306
:1049200087B27743D617D21900277E4136049B19E8
:104930001704160C7F185E417316ED18F30100265C
:1049400080337541A90F06D16400690AE8055B0A46
:10495000184309D22FE00422944480337541A90AF8
:10496000A8059B0A184326D3404149412404009AD4
:10497000019B0D005543641B4343E41A95B286B274
:104980007543170C7E43030C5F4392B25A43B6182B
:1049900002D301221204BF183204330C52197B4196
:1049A00052429C41002C02D4002201305141400867
:1049B000CA071043490802B06246D7079210084B55
:1049C000D218084B9A4203D212058918C919F0BDB2
:1049D0000020002A01DC3900F0BD01331905F5E79C
:1049E000FD030000FE070000002200B5203200F0A9
:1049F00010F8080000BD002200B500F00CF8CA173E
:104A00009A4200D100BDD8430121C907414000BDF1
:104A100000220B150AD410B5944600F0A7F8141420
:104A2000013400DA0021CB17144C2047002000216C
:104A300070476244343A0CD40C2A07DA04009140DF
:104A4000904052422032D440214310BDD843D94334
:104A500010BD203207D40C469440524220321141FE
:104A6000D040204310BD0800C917203203D4524261
:104A70002032104110BD1800190010BD334A00103B
:104A80004A00520D144BD21A13DDFF2A1EDAD2054A
:104A9000CB0FDB071A43C300400F0903490A084341
:104AA00010435B0001D301D0013070474308FBD2B3
:104AB000704702D0C80FC00770470A0312130132B3
:104AC000F8D1420F072AF5D1012200E0FF22C80FDA
:104AD00000028018C00570478003000000210A0012
:104AE000002104E000210A00C11704E00022002395
:104AF00006E0C0460022CB1758405940C01A9941E1
:104B000030B5184CA21A002903D1010010D00020A2
:104B1000203A4C1512D104D2013A001849414C0DEB
:104B2000FAD3114CA24204D212058918DB07C91826
:104B300030BDD243520D00200021F5E703D4013AE5
:104B400000184941FBD50B324405C00A4D052843E6
:104B5000C90A640003D0002460416141E1E7E0D369
:104B60004408F8E732040000FE0700000A0DCC0FED
:104B7000531E1B05C91A520503D3C943404200D333
:104B80000131520D03D0531CDB0A07D0121B002049
:104B90006400611C89078912803A1203014BD21A02
:104BA00070470000FF03000051434343C9188C467F
:104BB000110C83B24B4310B4040C614392B280B227
:104BC000504362431C041B0C001910BC59411304D0
:104BD000120CC018514161447047000007B54840AD
:104BE0004140484001E0C04607B54200120E03D0E4
:104BF000FF2A03D1420218D8C00DC0054A00120E88
:104C000003D0FF2A03D14A020FD8C90DC9050122DA
:104C1000414005D4414001D5814207BD884207BDCE
:104C20000143491801D0C043001807BD00B5FFF784
:104C3000DBFF01D0002000BD012000BD00B5FFF763
:104C4000D3FF804100BDC04600B5FFF7CDFF01D9BD
:104C5000002000BD012000BD00B5FFF7BFFF80416F
:104C600000BD01231B064200D21804D84A00D21806
:104C700001D800207047012070470000034BDB6F14
:104C8000FC4618477CDFC14D001000007839002039
:104C900070B513231D782A48FEF7E2FF0400012DAA
:104CA00011D0012D09DDA31E1B789B007F2B40DD59
:104CB00080222100234800F0D1F82348FEF7C8FFE6
:104CC000224B186070BD542201001E4800F0C6F847
:104CD0001F4B1A881F4B9A421CD1A7239B011A888D
:104CE0001D4B9A4216D11D4B1A881D4B9A4211D169
:104CF0001C4B1A8894239B019A420BD11A4B1A8899
:104D00001A4B9A4206D11A4B1A681A4B9A4201D191
:104D1000152307E01848FDF7A1FE99001748094A36
:104D2000885001331F2BF8D9144A064B1A62DA61F6
:104D3000B7E7134B134A42211348FDF7F5FDC04670
:104D400053460000783900204C33000074390020AD
:104D5000EE290000C40F0000C20D0000962B0000D9
:104D6000C0B50000182B0000CC2A000010B50000D0
:104D7000FC2C000051ED8764F07704108D4D00107D
:104D80001C8604108C8604105086041007B56046FB
:104D9000002800D100BE01880A0A0230DF2AFAD1B9
:104DA000C9B2820804D3028840880004104300E09E
:104DB0000068024A5050039007BD00007839002077
:104DC000C30FDB0741000A0E07D0FF2A08D00909EC
:104DD000054A891819434007704719000020704799
:104DE0000249C918FAE70000000000380000F07F0F
:104DF00010B5040035F02CF9002804D00419034B39
:104E00009C4200D810BD0248FDF728FE0000042097
:104E1000A086041010B50C0035F094FD002804D0D5
:104E20000419034B9C4200D810BD0248FDF716FE42
:104E300000000420A086041010B535F013F910BD51
:104E400001480421014B1847C0130020713C001099
:104E5000014B1B6818470000C0130020014B5B6822
:104E600018470000C013002010B50300080011000F
:104E70001B68984710BD0000F8B507000D0016002C
:104E8000437D002B02D0002400200CE003681100B9
:104E9000280098472DE03B7D10E0022115483B6833
:104EA0009847601C0134B44214DA002CF3DD2B194E
:104EB000013B1B780D3B5A425341DBB22A5D0A2A63
:104EC000F0D1002BEED1A042E7DA211A28183B6876
:104ED0009847E2E7B04203DA311A28183B6898474E
:104EE000002E06DDAD19013D2B780D3B5A42534192
:104EF0003B75F8BD2887041070B505000368002BCA
:104F000016D00C4B1C6805E0290004C92000FFF7EF
:104F1000B3FF2469002C09D02368002BF9D0064B7D
:104F20001B68002BF0D0A342F3D1EDE700232B60E8
:104F300070BDC046443800204C38002070B50500D4
:104F40000C000B68802B05D021684B1C2360641873
:104F5000257170BD0800FFF7CFFFF5E7F0B583B00E
:104F600007000E000092019328E0A368002B04D0F4
:104F7000310038009847002827DC2469002C06D02F
:104F8000134B1D68002DF0D0A542F6D1EDE7009936
:104F9000019A104B5B6A9A4209D80E48806A88428F
:104FA0000FD29A4201D0012302E0002300E0002347
:104FB000002B08D101200021FCF7B6FF064B1C682E
:104FC000DCE70123F4E70120404203B0F0BDC04616
:104FD0004C380020004005404438002010B5FCF754
:104FE00083FF02000B1E0BDB0D48002112184B4102
:104FF000002B0BDB002B0DDB0A4842F0D5FA10BD6D
:10500000094B0A4A3F210A48FDF78EFC0122524211
:10501000084BEFE7044B054A3F210548FDF784FCA8
:1050200040420F00881E0020A47B0410108704104B
:10503000C07B0410FFFFFF7F10B5024842F05CFA0E
:1050400010BDC046881E0020F0B5CE46474680B54C
:1050500083B006000D0090461C00FFF7BFFF81469D
:105060006B1C05D0002C08D0194F1A4B1C6807E0A8
:10507000300036F059FF0500F4E7174FF5E72469D3
:10508000002C17D02368002BF9D0144B1B68002B81
:1050900001D0A342F3D12A0031002000B847434693
:1050A000002BECD06B46D91D0A230B700122200087
:1050B000B847E4E74B46002B07D16B1E9D41E8B291
:1050C00003B0C0BCB946B046F0BDFFF7B5FFF4E78A
:1050D000694E001044380020794E00104C380020F2
:1050E00010B5030008001100002B05D1044B1A680D
:1050F0005B68FFF733FF10BD01204042FBE7C0466D
:10510000387F041010B5030008001400013B012B88
:1051100006D8002300222100FFF796FF200010BDD3
:1051200001204042FBE701204042704701204042FD
:1051300070470120404270470300002002229A423B
:105140004041704710B5064B1C6801E09847246940
:10515000002C03D06368002BF8D1F8E710BDC046DF
:105160004438002070B5050036F0DEFE0400002350
:10517000012201002800FFF767FFFFF7E3FF20008F
:1051800070BD000070B5A2B004000E00FFF726FF4E
:105190000500002301933300220001A90848FEF70F
:1051A0003FFD040001A8FFF7A7FEFFF7CBFF002D8E
:1051B00002D1200022B070BDFFF73EFFF9E7C046E4
:1051C0003D4F00100FB400B583B004A901C901918F
:1051D000FFF7D8FF03B008BC04B0184710B5024869
:1051E00000F004F810BDC0466C38002070B588B0DF
:1051F000040004AD002604960922002105A8FFF74B
:1052000027FE00960922002101A8FFF721FE4B236B
:105210002B700D226946280042F066F9002304E055
:105220005A1D69468A5CE2540133072BF8DD08B049
:1052300070BDF0B5DE4657464E464546E0B585B0F2
:10524000060010001C0002930EAB1A7803920F9D0B
:10525000109F33680022DA66336859603368013280
:10526000DA66A246002398469B4600242BE032795A
:10527000002A31D001222FE00399002901D000211A
:105280002EE001212CE03800A84703000443E4B2DB
:10529000002B06D13268526BD20602D4002DF2D117
:1052A000F6E7002B09D13268802151588B4600293E
:1052B0001FD1002C2FD1C1451ED0002C33D101228B
:1052C0009446E0440198D0452DDA029A013A91467D
:1052D0004246002ACBD000229202C145CCD0002108
:1052E00049020A43411C01910078316802430A6176
:1052F000D4E7526D01240EE0039A002ADDD10AE0C2
:105300003800A84703000443E4B2002B06D13268FA
:10531000526B920502D4002DF2D1F6E7002BCCD1CE
:105320003268126EC9E7002C09D0002B15D15B46FC
:10533000002B16D0DB0718D45B461B0709D5039B4F
:105340003371404605B0F0BCBB46B246A946A04604
:10535000F0BD02235B429846F1E701235B42984689
:10536000EDE702235B429846E9E702235B42984659
:10537000E5E7F0B5DE4657464E464546E0B583B014
:10538000050091469A460CAB1B7801930D9E0E9F2B
:1053900003680022DA660368596003680132DA663E
:1053A000D3460023984600242AE02979002933D0E7
:1053B000012131E00198002801D0002030E00120D7
:1053C0002EE03800B04703000443E4B2002C0DD1B6
:1053D0002A68926F002A09D12A6880215158546D99
:1053E000621E9441E4B2002EEBD1EFE7002C1ED1F7
:1053F0002A68126949460A7001229446E044E14451
:10540000D84514DA5246541E2A68516F1029FBD031
:1054100041460029C9D0002189024445CAD0002054
:10542000400208438021490001431161D4E7002C68
:1054300004D0002B0CD001235B429846019B2B71BA
:10544000404603B0F0BCBB46B246A946A046F0BDFC
:1054500002235B429846F1E7F0B5D6464F464646F2
:10546000C0B505000C000520FDF780F906006008B6
:1054700080192100FEF740FC070043009946814453
:1054800005214846FEF738FC80463B1A9A46284BD1
:105490009C4224D8700080192649FEF72DFC441C3C
:1054A0004346023BA34221D32B680022DA662968D7
:1054B0000A680423534006221A4080235B010B43F1
:1054C0001A602B685246DA612B6842461A624B46D4
:1054D0004F2B11D950214846FEF70EFC0DE070000D
:1054E00080191549FEF708FC441CD9E7134B144AF0
:1054F0005F211448FDF718FA0120A0232A68D05034
:105500002A6811007C31D06F44402404240C80238D
:105510005B010B431C602B680122DA663900300006
:10552000FEF7EAFBE0BCBA46B146A846F0BDC0466D
:105530003F420F008096980040787D018C880410CF
:10554000E0880410AC88041010B5114B98421CD0B0
:105550001022104B1A60104B1A60104B9B681400FD
:105560009C43231EF9D104710268D4660268662444
:10557000FF3414600268D3630268936388330322A4
:105580000468E250FFF768FF10BD0822E1E7C0465B
:10559000D013002000E0004000F0004000C00040B8
:1055A00030B585B008AC25780024029401940095AC
:1055B000FFF73FFE05B030BD30B585B008AC2578AB
:1055C0000024029401940095FFF7D3FE05B030BD8E
:1055D0004068704770B504000D00012805D0002C0C
:1055E00002D1074B9D4207D070BD054B9942F6D1C1
:1055F000044802F0D1FFF2E7024802F0DDFFF3E7D2
:10560000FFFF00005836002043680068181A7047F2
:1056100010B5436802689A1A914202D20368585C36
:1056200010BD014815F018FCF4880410406870475C
:105630000170704700787047017070477047000034
:10564000F8B5070014004E1E11E064212000FEF79B
:1056500053FB4D0064212000FEF74EFB04006A1C42
:105660000A4B9A5CBA55721E5B5DBB54023E632CBA
:10567000EBD8092C07D96400621C044B9A5C7A7041
:105680001B5D3B70F8BD30343C70FBE7648A04104E
:1056900070B582B005000E1E0DD0941B01940F2C26
:1056A0000ED82868012C14D0002C14D02200310010
:1056B000FFF7D4FB0FE09142EFD00B4815F084FBCD
:1056C000002201A9280020F001FC2860019BAB60AA
:1056D000E7E733780370019A6A602B689B18002211
:1056E0001A7002B070BDC0462C760410F0B5B3B08D
:1056F00005000C001600B64A0260B64A083204C023
:105700002A000C326A6019685A688A180023FFF769
:10571000BFFF28AB2693216862688A18002326A859
:10572000FFF7B6FF279A002A00D000221223009329
:10573000A94B002126A820F041FD040022AB2093B4
:10574000036807000837BB4213D020938368229375
:10575000636821932760002363602372219A9F4B23
:105760009B1A082B0BD909229D4920A820F0EAFD9D
:105770000BE01022390022A8FFF770FBE8E79948F8
:1057800015F03AFB04000E00F5E004001CAB1A9380
:10579000036807000837BB421DD01A9383681C9327
:1057A00063681B932760002363602372F70F002E4A
:1057B00017DB30000124092816D9632813D9FA23EE
:1057C0009B00984218D3884B984217D98749FEF717
:1057D00093FA0434EFE7102239001CA8FFF73EFBD0
:1057E000DEE77642E5E7013439192EAB2C932D2202
:1057F0002CA820F093FB03E00234F5E70334F3E731
:105800002C9BD81932002100FFF71AFF1B982D9A04
:1058100081181A9B1CACA3420ED01C9CA14206D935
:105820002EAC2C9EA64209D02E9CA14208D92C99C0
:105830001AA820F087FD24E00F24EFE70F24F4E7F7
:105840002D9A002A00D00022009000212CA820F0E0
:10585000B5FC040016AB1493036806000836B34287
:1058600009D0149383681693636815932660002308
:105870006360237216E01022310016A8FFF7EEFADB
:10588000F2E7040016AB1493036806000836B3422F
:1058900013D01493836816936368159326600023CE
:1058A000636023724D4B159A9B1A152B0BD9162248
:1058B0004F4914A820F046FD0BE01022310016A835
:1058C000FFF7CCFAE8E7474815F096FA04000E0017
:1058D00048E0040010AB0E93036806000836B3429C
:1058E0000ED00E938368109363680F932660002395
:1058F00063602372AA6869680EA820F023FD05E0A2
:105900001022310010A8FFF7A9FAEDE704000AAB56
:105910000893036806000836B34212D008938368E0
:105920000A93636809932660002363602372099ACF
:105930002A4B9A420BD001222E4908A820F002FDE2
:1059400060E0102231000AA8FFF788FAE9E725484D
:1059500015F052FA04000E0008A820F0D5FA0EA89F
:1059600020F0D2FA14A820F0CFFA2CA820F0CCFA1C
:105970001AA820F0C9FA20A820F0C6FA26A820F01C
:10598000C3FA20003100012900D0D2E001F0C0FAB2
:105990000400114918481FF0D5FE18491FF0D2FE27
:1059A0000F491FF0CFFE2A211FF09CFF14491FF062
:1059B000C9FE060023689B6820009847010030005C
:1059C0001FF0C0FE1FF05AFD01F0DCFAA1E0C04656
:1059D0009C8D0410488B041040890410FFFFFF3F8A
:1059E0006C890410548904100F2700001027000050
:1059F00078890410548F04106832002090890410B4
:105A0000E0890410040004AB029303680600083622
:105A1000B34246D00293836804936368039326607D
:105A200000236360237208980AAB984203D00A9B54
:105A3000591C01F09FF80E9810AB984203D0109BB0
:105A4000591C01F097F8149816AB984203D0169B96
:105A5000591C01F08FF82C982EAB984203D02E9B46
:105A6000591C01F087F81A981CAB984203D01C9B74
:105A7000591C01F07FF8209822AB984203D0229B5A
:105A8000591C01F077F8269828AB984203D0289B40
:105A9000591C01F06FF8039A029931481FF014FD68
:105AA00005E01022310004A8FFF7D8F9B5E704009B
:105AB00003680C3B1B68C318DE6F002E08D0337FD1
:105AC000002B0FD02723F15C20001FF067FC13E0B0
:105AD00015F06AF904000E0002A820F015FA200063
