:020000041000EA
:1000000000B5324B212058609868022188439860DF
:10001000D860186158612E4B002199600221596106
:100020000121F02299502B49196001219960352056
:1000300000F044F80222904214D00621196600F024
:1000400034F8196E01211966002018661A6600F04E
:100050002CF8196E196E196E052000F02FF8012189
:100060000842F9D1002199601B49196000215960AB
:100070001A491B48016001219960EB211966A021F2
:10008000196600F012F800219960164914480160C1
:100090000121996001BC002800D000471248134993
:1000A000086003C880F30888084703B5996A0420EC
:1000B0000142FBD001200142F8D103BD02B5186610
:1000C0001866FFF7F2FF186E186E02BD00000240BE
:1000D000000000180000070000035F00212200005C
:1000E000F4000018222000A00001001008ED00E03C
:1000F00000000000000000000000000074B24E7A12
:1001000000200420F7010010C3010010C5010010F9
:10011000C1010010C1010010C1010010C101001097
:10012000C1010010C1010010C1010010C701001081
:10013000C1010010C1010010C9010010CB01001065
:10014000CD010010CD010010CD010010CD01001037
:10015000CD010010CD010010CD010010CD01001027
:10016000CD010010CD010010CD010010CD01001017
:10017000CD010010CD010010CD010010CD01001007
:10018000CD010010CD010010CD010010CD010010F7
:10019000CD010010CD010010CD010010CD010010E7
:1001A000CD010010CD010010CD010010CD010010D7
:1001B000CD010010CD010010CD010010CD010010C7
:1001C00000BE00BE00BE00BE00BE00BEEFF3058054
:1001D000103800BEF2EB8871D4840510F484051049
:1001E0003402001090A31AE700201F49086006C8D7
:1001F00081F3088810471D48006800282FD10DA4FE
:100200000ECC002902D000F012F8F9E71849194A7B
:10021000002000E001C19142FCD1174988471749ED
:1002200088471749884700BEFDE701C901C29A42C5
:10023000FBD37047F4840510C0000020A0260020E6
:10024000D4AA05100000042000000420D4AA051040
:10025000001004200010042000000000704709482E
:1002600005F062FE0047000008ED00E0000000D04D
:10027000A0260020604B00203D4C0010ED0B00102C
:10028000FB4B00105756000006005250ABB36053B2
:1002900048B9041006005250861C030258B90410D5
:1002A000060052505422A29D5CB904100500525021
:1002B000DE65F468D4AA0510F8B5C04610B5064C42
:1002C0002378002B07D1054B002B02D0044800E017
:1002D00000BF0123237010BDA827002000000000EC
:1002E00098A40410044B10B5002B03D00349044814
:1002F00000E000BF10BDC04600000000AC27002099
:1003000098A404104068704770B504000D000128DF
:1003100005D0002C02D1074B9D4207D070BD054B84
:100320009942F6D104480BF09DF8F2E702480BF031
:10033000A9F8F3E7FFFF0000703E002010B50400AD
:10034000084B0200083308C2406823000C3398426F
:1003500003D09168013109F0CBFB200009F0C8FD02
:10036000200010BDF0A6041010B504000A4B0200D6
:10037000083308C2406823000C33984203D09168C8
:10038000013109F0B5FB200009F0B2FD1C2120006D
:1003900009F0AEFB200010BDF0A604104368006811
:1003A000181A704710B5436802689A1A914202D22F
:1003B0000368585C10BD01481DF09CFC98A4041013
:1003C00001707047F8B5070014004E1E11E064215B
:1003D000200005F0FDFD4D006421200005F0F8FD32
:1003E00004006A1C0A4B9A5CBA55721E5B5DBB54D2
:1003F000023E632CEBD8092C07D96400621C044B25
:100400009A5C7A701B5D3B70F8BD30343C70FBE742
:100410000CA6041070B582B005000E1E0DD0941B02
:1004200001940F2C0ED82868012C14D0002C14D065
:100430002200310006F002FE0FE09142EFD00B489F
:100440001DF028FC002201A9280028F0CBFB286021
:10045000019BAB60E7E733780370019A6A602B6811
:100460009B1800221A7002B070BDC046E4A40410AC
:1004700070B504000D0003000833036000290AD0A2
:1004800008003EF031FC2A18002329002000FFF765
:10049000C1FF200070BD0122F6E7000070B582B0F8
:1004A00005000E1E0DD0941B01940F2C0ED8286849
:1004B000012C14D0002C14D02200310006F0BEFD17
:1004C0000FE09142EFD00B481DF0E4FB002201A9A0
:1004D000280028F087FB2860019BAB60E7E73378B2
:1004E0000370019A6A602B689B1800221A7002B090
:1004F00070BDC046E4A40410F0B5B3B005000C0014
:100500001600B64A0260B64A083204C02A000C320D
:100510006A6019685A688A180023FFF7BFFF28AB82
:100520002693216862688A18002326A8FFF7B6FF81
:10053000279A002A00D0002212230093A94B002101
:1005400026A828F0C7FC040022AB2093036807000C
:100550000837BB4213D020938368229363682193AA
:100560002760002363602372219A9F4B9B1A082BFC
:100570000BD909229D4920A828F070FD0BE010221C
:10058000390022A806F05AFDE8E799481DF09AFBC9
:1005900004000E00F5E004001CAB1A93036807008A
:1005A0000837BB421DD01A9383681C9363681B9362
:1005B0002760002363602372F70F002E17DB3000E3
:1005C0000124092816D9632813D9FA239B009842DD
:1005D00018D3884B984217D9874905F0F9FC0434A1
:1005E000EFE7102239001CA806F028FDDEE776426E
:1005F000E5E7013439192EAB2C932D222CA828F0D5
:1006000019FB03E00234F5E70334F3E72C9BD81918
:1006100032002100FFF7D6FE1B982D9A81181A9BF5
:100620001CACA3420ED01C9CA14206D92EAC2C9E21
:10063000A64209D02E9CA14208D92C991AA828F0CC
:100640000DFD24E00F24EFE70F24F4E72D9A002A94
:1006500000D00022009000212CA828F03BFC0400D0
:1006600016AB1493036806000836B34209D01493FE
:100670008368169363681593266000236360237272
:1006800016E01022310016A806F0D8FCF2E70400AC
:1006900016AB1493036806000836B34213D01493C4
:1006A0008368169363681593266000236360237242
:1006B0004D4B159A9B1A152B0BD916224F4914A88E
:1006C00028F0CCFC0BE01022310016A806F0B6FC96
:1006D000E8E747481DF0F6FA04000E0048E0040081
:1006E00010AB0E93036806000836B3420ED00E938B
:1006F0008368109363680F932660002363602372FE
:10070000AA6869680EA828F0A9FC05E0102231004B
:1007100010A806F093FCEDE704000AAB0893036809
:1007200006000836B34212D0089383680A936368C0
:1007300009932660002363602372099A2A4B9A4228
:100740000BD001222E4908A828F088FC60E0102276
:1007500031000AA806F072FCE9E725481DF0B2FA5C
:1007600004000E0008A828F05BFA0EA828F058FA3A
:1007700014A828F055FA2CA828F052FA1AA828F044
:100780004FFA20A828F04CFA26A828F049FA2000B1
:100790003100012900D0D2E009F020FB040011490A
:1007A000184827F05BFE184927F058FE0F4927F03C
:1007B00055FE2A2127F022FF144927F04FFE06009C
:1007C00023689B68200098470100300027F046FE10
:1007D00027F0E0FC09F03CFBA1E0C046A0C00410FB
:1007E000F0A6041010A50410FFFFFF3F3CA5041065
:1007F00024A504100F2700001027000048A50410AE
:1008000058C20410883A002060A50410ACA504105A
:10081000040004AB0293036806000836B34246D0D6
:1008200002938368049363680393266000236360E4
:10083000237208980AAB984203D00A9B591C09F00E
:1008400057F90E9810AB984203D0109B591C09F031
:100850004FF9149816AB984203D0169B591C09F017
:1008600047F92C982EAB984203D02E9B591C09F0C7
:100870003FF91A981CAB984203D01C9B591C09F0F5
:1008800037F9209822AB984203D0229B591C09F0DB
:100890002FF9269828AB984203D0289B591C09F0C1
:1008A00027F9039A0299314827F09AFC05E01022B3
:1008B000310004A806F0C2FBB5E7040003680C3B56
:1008C0001B68C318DE6F002E08D0337F002B0FD0BB
:1008D0002723F15C200027F0EDFB13E01DF0CAF99F
:1008E00004000E0002A828F09BF92000310050E718
:1008F000300011F017F833689B690A2130009847DF
:100900000100E7E727F052FB02A800F09FFC0298E5
:1009100004AB984203D0049B591C09F0E9F8280065
:1009200033B0F0BD04000E001FE704000E0022E704
:1009300004000E0022E704000E0025E729E709F075
:100940004DFA0B49094827F089FD0A4927F086FD31
:10095000094927F083FD2B2127F050FE074927F096
:100960007DFD27F017FC09F073FAD8E7883A0020DC
:1009700010A5041060A504103CA50410DCA504100B
:10098000F0B5C64600B58CB0050088461700129C2D
:1009900008AA069219685A688A18002306A8FFF761
:1009A0007DFD079A2B4B9B1A022B05D903222A495E
:1009B00006A828F053FB07E028481DF083F906A895
:1009C00028F02EF909F02AFE23689B68200098473A
:1009D00004003EF089F902001E4B07995B1A984209
:1009E0002FD8210006A828F039FB040002AB0093A1
:1009F000036806000836B34226D00093836802934A
:100A00006368019326600023636023726B463A009B
:100A100041462800FFF770FD009802AB984203D0D2
:100A2000029B591C09F064F8069808AB984203D061
:100A3000089B591C09F05CF828000CB080BCB84633
:100A4000F0BD06481DF03EF91022310002A806F064
:100A5000F5FAD5E7FFFFFF3FD8A5041024A5041041
:100A60007047F8B504000D0049682A688E1A002303
:100A700003604360836091421AD0002E16DB300081
:100A800009F07EFE206060608019A06028686F68B1
:100A90002668FFF7E5FF05003800FFF7E1FF471B79
:100AA000854207D1F61966602000F8BD1DF0D2F826
:100AB0000020E7E73A00290030003CF041FDF1E773
:100AC00010B502490120FFF71FFC10BDFFFF000019
:100AD00070B504000D00012805D0002C02D1074B91
:100AE0009D4207D070BD054B9942F6D104480AF0EB
:100AF000B9FCF2E702480AF0C5FCF3E7FFFF00008B
:100B0000743E002010B504000068A368191A00287C
:100B100001D008F0EDFF200010BD000010B58EB030
:100B20001C2009F04FF8040006AA12496846FFF796
:100B30009FFC0DAA104907A8FFF79AFCA82207AB53
:100B4000FF3269462000FFF7D7FC07A828F068F8B5
:100B5000684628F065F8094A0949200009F0BEFDF9
:100B6000684628F05DF8200009F042F809F068F8BE
:100B7000F9E7C04604A7041050A704103D03001075
:100B8000D8A6041010B58EB01C2009F01BF8040084
:100B900006AA12496846FFF76BFC0DAA104907A880
:100BA000FFF766FC9C2207ABFF3269462000FFF787
:100BB000A3FC07A828F034F8684628F031F8094A61
:100BC0000949200009F08AFD684628F029F820002C
:100BD00009F00EF809F034F8F9E7C04604A704104C
:100BE00050A704103D030010D8A60410F0B5D64657
:100BF0004F464646C0B5F6B002AF06F0F5FB0122FF
:100C000000212C2310201B18D81900F057FE962223
:100C10001201F96B202310201B18D81901F0EAF9F2
:100C200005220421302310201B18D81900F046FE9D
:100C300096221201396C142310201B18D81901F0C8
:100C4000D9F94C2310229B18DA19E84934244C3B7B
:100C5000E318D819FFF70CFC1023E318D81900F09B
:100C6000F5FA1023E318D81927F0DAFF002300243F
:100C7000BB60FC6012E22021891ABC68FD68280074
:100C8000884001002000D04002000A43102179185A
:100C9000CA540133072B07DCDA00202149425118DE
:100CA000E9D4FA68CA40F1E700233B667B66BB667D
:100CB000082009F065FD386606000836BE66082281
:100CC0001023F9183CF03CFC7E6600215C231022C6
:100CD0009B18D819FFF774FB1BE004000E0050238B
:100CE00010229B18D819FFF70DFF200031000129B1
:100CF00000D034E209F072F80600C82310229B18D5
:100D0000DA19BB49283B10201B18D819FFF7B0FB94
:100D1000F0E15C2310229B18DB191A785023102174
:100D20005B18D919403B10201B18D81900F05EFA47
:100D3000386EBB6E191A002801D008F0D9FE68235E
:100D400010229B18DB193B67AA4A11000E390023B9
:100D5000602010240019C019FFF75CFB6E463A6F43
:100D60003C687D682000290000900191002100204E
:100D700005F0A0F8411C0830C008C000321A9546A2
:100D800002AA90463A6F23002C000093019440463B
:100D900005F090F8A2235B0010229B18DB192D327E
:100DA000FF3210215218D21913604346002B0FD086
:100DB00040463DF099FF02004244002341469E20F8
:100DC0004000040010254019C019FFF723FB01E083
:100DD0000122F2E71023E318D81900F037FA1023A4
:100DE000E318DB191868A22252001023D318DB196C
:100DF000984206D01023D318DB191B68591C08F041
:100E000077FEB546386F682310229B18DB1998428D
:100E100003D0BB6F591C08F06BFE642003F030F860
:100E20003FE0B546012901D009F0F8FB08F0D6FFF4
:100E300006008A235B00FA186F4984246400053B8E
:100E4000FF3BE318D819FFF713FBE82310229B1888
:100E5000DA196A49EC25E83BEB18D819FFF708FBCB
:100E600000961023EB18DB19452210216118C919CF
:100E70009026760010203018C019FFF781FD10234E
:100E8000F318D819FFF75AFA1023EB18D81927F0DE
:100E9000C7FE1023E318D81927F0C2FE08F0D8FFC8
:100EA000B0E7002178231C0010229B18D819FFF707
:100EB00087FA1022A318DB191B78083A1421102096
:100EC0000918C9190838683C0019C01901F00AFC52
:100ED000002608E086420DD231001023E318D8190D
:100EE000FFF760FA013608241023E318D819FFF73A
:100EF00055FAEFE7842310229B18DB197C32BA18CD
:100F000013603F4A11000B3900237C201024001984
:100F1000C019FFF77FFA082310229B18D819FFF792
:100F20003DFA8146E84603008C22BA181268002177
:100F3000002004F0BFFF411C02000832D208D2009A
:100F40006B469B1A9D4602AE4B468C22BA1812681D
:100F5000300004F0AFFFD8235B0010229B18DB1990
:100F60009932FF3210215218D2191360002E0ED080
:100F700030003DF0B9FE321800233100D42040008B
:100F8000040010254019C019FFF744FA01E00122BE
:100F9000F2E71023E318D81900F058F91023E318EA
:100FA000DB191868D82252001023D318DB19984295
:100FB00006D01023D318DB191B68591C08F098FDC4
:100FC000C5468C23FB181868842310229B18DB1954
:100FD000984207D0842310229B18DB191B68591CE8
:100FE00008F086FD642002F04BFF50E090A704104B
:100FF000C8A70410A6A7041004A70410A8A70410EB
:10100000C7A70410C546012901D009F007FB08F065
:10101000E5FE0600B8235B0010229B18DA19584938
:10102000BA246400713BFF3BE318D819FFF720FA9C
:10103000AA235B0010229B18DA195249AC256D00D7
:10104000553BFF3BEB18D819FFF712FA0096102317
:10105000EB18DB19452210216118C919C626760044
:1010600010203018C019FFF78BFC1023F318D81983
:10107000FFF764F91023EB18D81927F0D1FD1023DE
:10108000E318D81927F0CCFD08F0E2FE99E7B8691B
:101090003B6A191A002801D008F02AFD012200231A
:1010A000BC68FD68A4185D413C607D60BC60FD606B
:1010B0000023EFE504000E00502310229B18D819DE
:1010C000FFF720FD2000310011E604000E007C2314
:1010D00010229B18D81927F0A3FD082310229B1873
:1010E000D819FFF70FFD2000310000E604000E00C4
:1010F000F3E7FCE5E42310229B18DA192249283B88
:1011000010201B18D819FFF7B3F90096CC24102330
:10111000E318DB192E22B02510216918C91994266D
:1011200010203018C019FFF72BFC1023F318D81922
:10113000FFF704F91023E318D81927F071FD1023E5
:10114000EB18D81927F06CFD08F082FEA6E7B02353
:1011500010229B18D81927F063FD08F079FE0B4B7D
:101160007B620B4B7B620B4B7B62084B3B63084BF8
:101170003B63084B3B6308F063FDEEE7EFE7F4E702
:1011800004A70410A8A704101CA804108CAA04101B
:10119000B0A8041090A8041010B502490120FFF770
:1011A00097FC10BDFFFF0000034B08330360034BA7
:1011B0000360034B0360704784AA0410B0A80410B6
:1011C00090A8041010B50400054B08330360054BCC
:1011D0000360054B03600C2108F08AFC200010BD61
:1011E00084AA0410B0A8041090A8041070B584B0AC
:1011F0000E000379002B09D0124C310001A8FFF733
:1012000030FC019D3000FFF7C9F801E00E4CF4E717
:101210000022904207D9A3699B06FCD42B78236057
:1012200001320135F5E70198039B191A002801D016
:1012300008F05EFC04B070BD01A8FFF763FC08F085
:10124000FFFCC046008003400040034010B5ACB036
:1012500001684268234826F0C3FF26F0A7FE20E07D
:10126000012920D108F0BAFD04000FAA1E4909A8DF
:10127000FFF7FEF816AA1D4910A8FFF7F9F8009429
:1012800010AB1B2209A902A8FFF77AFB02A8FFF7FF
:1012900055F810A827F0C4FC09A827F0C1FC08F0F5
:1012A000D7FD2CB010BD08F099FD24AA0E491EA848
:1012B000FFF7DEF82BAA0D4925A8FFF7D9F825ABD3
:1012C0001C221EA917A8FFF717F917A8FFF736F871
:1012D00025A827F0A5FC1EA827F0A2FC08F0B8FD61
:1012E000DFE7C046A03B0020C8A80410A8A7041050
:1012F00030B587B0040002AD0095094A911F002364
:101300006846FFF787F86846FFF7A0FF0098A842F5
:1013100003D0029B591C08F0EBFB207807B030BDCE
:101320001EA9041030B587B0040002AD0095094A2B
:10133000911F00236846FFF76DF86846FFF786FFA8
:101340000098A84203D0029B591C08F0D1FB60789A
:1013500007B030BD26A9041030B587B0040002AD37
:1013600000950E4A911F00236846FFF753F8684620
:10137000FFF76CFF0098A84203D0029B591C08F0AD
:10138000B7FB2378042B06D0082B02D0002007B02F
:1013900030BD0120FBE70120F9E7C0462EA904106B
:1013A00030B587B0040002AD00950D4A911F0023AF
:1013B0006846FFF72FF86846FFF748FF0098A842F5
:1013C00003D0029B591C08F093FB2379002B05D016
:1013D0000448A16803F08AF907B030BD0248F8E775
:1013E00036A90410008003400040034030B587B0A8
:1013F000040002AD00950F4A911F00236846FFF7D5
:1014000009F86846FFF722FF0098A84203D0029B24
:10141000591C08F06DFB05342000FFF769FF02211D
:1014200001F0AEFB2000FFF77DFF022101F0A8FBD9
:1014300007B030BD3EA9041030B587B00379002B4A
:1014400001D107B030BD02AC00941B4A911F0023AC
:101450006846FEF7DFFF6846FFF7F8FE0098A042F7
:1014600003D0029B591C08F043FB144D2A6BC02388
:101470001B021A4080246401114B23431A60EA6A5C
:10148000602353406E221A400E4B23431A60E96AD0
:1014900010220A401A600C49152001F0B7FC012106
:1014A000152001F089FC5023AB636A6B183B134095
:1014B000064A14432360C4E746A904100080034091
:1014C000308003402C800340E91D0010348003402D
:1014D00070B506000C0009E0E1683000FFF7F8FF86
:1014E000A5681421200008F003FB2C00002CF3D188
:1014F00070BD70B50C00150004E001CC802189009E
:1015000008F0F6FAAC42F8D370BD10B504000368D9
:10151000002B09D0436A1A1D4169FFF7EAFF63688F
:101520009900206808F0E4FA200010BD10B588B0DA
:10153000040083680093C3680193036902934369BD
:10154000039383690493C3690593036A0693436A0B
:101550000793FFF7DAFF200008B010BD10B50400B4
:1015600080218900C06808F0C3FA63691A1D6261AE
:101570005B68E360802292009A182261A36010BD2C
:1015800030B5100000E0C968002906D00D7C1C7839
:10159000A542F8D308008968F6E730BD70B50D00A4
:1015A000041D0B0022008168FFF7EAFF844203D08C
:1015B0002A78037C9A4200D2200070BDF8B506005C
:1015C0000D0017000C0000E001C4BC4211D28020C5
:1015D000800009F0D5F8F7E708F000FC22002900A8
:1015E0003000FFF786FF09F093F808F031FC08F0AF
:1015F00027FBF8BDF0B583B004000F004B0A5D1C5B
:101600000822009203330193082B18D86B46186800
:10161000606080239B05984213D2800009F0B0F8E7
:10162000060020606368581B400880003618AD0033
:1016300075192A0031002000FFF7C0FF03E001AB5D
:10164000E5E71CF007FB66613368E36080208000FB
:101650001A182261043D65622968E1610A18226254
:10166000A360FF05FF0DCF19A76103B0F0BD08F01F
:10167000B5FB63689900206808F03AFA00232360FC
:10168000636009F045F808F0E3FB08F0D9FA10B5FB
:1016900004000023036043608360C360036143610F
:1016A0008361C361036243620021FFF7A3FF20004F
:1016B00010BD000070B504000D00012805D0002CFD
:1016C00002D10D4B9D420DD070BD0B4B9942F6D10E
:1016D0000A4809F0C7FE0A48FFF7D9FF0948FFF793
:1016E000D6FFECE70748FFF721FF0548FFF71EFF8D
:1016F000024809F0C7FEE7E7FFFF0000783E002040
:10170000043800202C380020F0B5C64600B504008F
:1017100016001F00002914D001239846142009F058
:101720002FF805003B780374231D3200010040466A
:101730000BF054FD636901336361280080BCB84637
:10174000F0BD031D9A4206D03B78127C9A4205D820
:1017500000239846E2E701239846DFE701239846F5
:10176000DCE7F0B5C64600B5804617008C680D1D55
:10177000012302E0E26825001400002C08D03D7827
:10178000267CB5429B415B42AE42F3D9A268F2E7A8
:101790002800002B04D0CB68AB420CD00BF002FD2C
:1017A000027C3B789A420AD243461C605D60404608
:1017B00080BCB846F0BD43461C605D60F7E7434619
:1017C0001860002342465360F1E7F0B5C64600B505
:1017D00004000E0015001F000A1D954213D03A7830
:1017E00090462A7C42452FD9CA68AA4220D02800B8
:1017F0000BF0D8FC037C434520D2C368002B1AD0E1
:101800002560656010E04B69002B08D00B691A7CDD
:101810003978914203D900220260436004E03A0023
:1018200031002000FFF79DFF200080BCB846F0BDCE
:1018300002604260F8E723606060F5E73A0031003B
:101840002000FFF78EFFEFE742451BD20A69AA424C
:101850000BD028000BF090FC037C98450CD2EB6871
:10186000002B06D020606060DEE70023036042604A
:10187000DAE723606560D7E73A0031002000FFF720
:1018800070FFD1E7056000234360CDE770B584B0F9
:10189000040015001E0013000A00010002A8FFF753
:1018A00094FF039A002A07D000962B00029920008B
:1018B000FFF72AFF04B070BD0298FBE770B5C0B017
:1018C00006000170427022ABA54A11002031128C33
:1018D0001A808A789A70209303232193082220A9E2
:1018E0001AA805F0ABFB08AB00221A710A9209A9ED
:1018F0000B910C910D921A9C1B9D6519149300E09D
:101900000134A54206D014AB220009A908A8FFF7AC
:10191000BDFFF5E725AA924B190024319B8C13805B
:101920008B78937023AB23920322249202AA03CBD9
:1019300003C20EAB00221A7110920FA911911291DD
:101940001392029CE51C1A9308E00A9B019319006C
:1019500008A8FFF7BDFD08F073F90134A54206D0D1
:101960001AAB22000FA90EA8FFF790FFF5E728ABEE
:101970007B4A128D1A80269302232793082226A9D8
:1019800004A805F05BFB14AB00221A71169215A98E
:10199000179118911992049C059D65191A930EE0F0
:1019A000109B019319000EA8FFF792FD0A9B01936B
:1019B000190008A8FFF78CFD08F042F90134A54290
:1019C00006D01AAB220015A914A8FFF75FFFF5E7B0
:1019D0002BAA634B9B8D138029AB299202222A925A
:1019E00006AA03CB03C21AAB00221A711C921BA9D0
:1019F0001D911E911F92069CA51C04930DE0169B41
:101A00000193190014A8FFF763FD109B01931900BF
:101A10000EA8FFF75DFDC9E70134A54206D004AB6F
:101A200022001BA91AA8FFF731FFF5E72EAB2C9374
:101A30004C4A911F00232CA8FEF7ECFC0CE01C9BE9
:101A4000019319001AA8FFF743FD169B0193190093
:101A500014A8FFF73DFDD8E72CA8FFF7F7FB2C985B
:101A60002EAB984203D02E9B591C08F041F8310050
:101A700008A8FFF793FD09AB834239D00124002C5D
:101A800008D0711C0EA8FFF789FD0FAB834231D03F
:101A9000002C12D1310014A8FFF780FD15AB834252
:101AA0002AD00124002C2BD0711C1AA8FFF776FD38
:101AB0001BAB834222D0002C22D01C9B0193190027
:101AC0001AA8FFF705FD169B0193190014A8FFF74C
:101AD000FFFC109B019319000EA8FFF7F9FC0A9B6D
:101AE0000193190008A8FFF7F3FC300040B070BD67
:101AF0000024C4E70024CBE70024D3E70024DAE77E
:101B00001C2008F05FF8040038AA174932A8FEF735
:101B1000AFFC3FAA154939A8FEF7AAFCCA2239AB87
:101B2000520032A92000FEF7E7FC39A827F078F828
:101B300032A827F075F80E4A0E49200008F0CEFDB5
:101B400005E032A827F06CF8200008F051F81C9B43
:101B5000019319001AA8FFF7BBFC76E7F4E7C0462B
:101B600020AA04104EA90410C8A8041050A90410FB
:101B70003D030010D8A60410F0B5CE46474680B508
:101B800083B0040001919046426A4169571ABD1022
:101B900001350198451963686E00B3421FD9266864
:101BA0005B1B5B089B004546002D01D0850000E0D3
:101BB00000255D197519A94207D9131D5A1A9942B2
:101BC00036D028003BF0BCFC32E0131D381D28182D
:101BD0005A1A99422CD0801A3BF0B2FC28E0221D00
:101BE000984238D816689E19023680239B059E427B
:101BF00033D2B00008F0C4FD8146751B6D08AD00FE
:101C00004346002B2BD0019B9B00ED184D4461698E
:101C1000636A04335A1A994202D028003BF090FCC0
:101C200063689900206807F063FF4B462360666095
:101C300065612B68E36080229200944663442361CF
:101C4000ED1965622B68E3616344236203B0C0BC95
:101C5000B946B046F0BD01AAC4E71BF0FBFF002364
:101C6000D3E70000F8B506000200436A1832446961
:101C70001B1B9B10013B5B0252688469A21A9B18D4
:101C800002698068121A9B181E4AD31A8B420ED31F
:101C90001D4B9C4661444F0A7A1C736A31685B1A7B
:101CA0009B107168CB1A9A4204D801240AE01748A5
:101CB0001CF008F8002239003000FFF75DFFF4E760
:101CC00028600134BC421CD8A500736A9C46654458
:101CD0008020800008F054FDF2E708F07FF801252D
:101CE000AC4208D9AB00726AD0588021890007F055
:101CF000FFFE0135F4E708F00BFD08F0A9F807F046
:101D00009FFFF8BDFFFFFF7FFF010000C8A904107F
:101D100070B504000D000200436A183240691B1AB6
:101D20009B10013B5B025268A069821A9B182269D2
:101D3000A168521A9B18144A93421BD0636A226806
:101D40009B1A9B106268D31A012B16D9666A8020F1
:101D5000800008F015FD70602B78A2691370636A2B
:101D60001A1D62625B68E361802292009A18226207
:101D7000A36170BD05481BF0A5FF002201212000D2
:101D8000FFF7FAFEE2E7C046FFFFFF7FE8A9041075
:101D900010B586B004008269036A013B9A4214D0F0
:101DA0000B781370836901338361A2690292E3693E
:101DB0000393216A0491616A019105919A4207D0C7
:101DC000029B581E029006B010BDFFF7A1FFECE782
:101DD0000B00043B05931B680393802292009446FA
:101DE000634404930293EBE710B582B011E06B46B5
:101DF00006331B786A46D11D0B70134C2000FFF789
:101E0000C7FFA3682269013A934217D001330E4AF3
:101E100093600E4B9B6910210A001A40194211D1A0
:101E20006B46991D002AE2D1084B9B69DB06FBD467
:101E3000064B1B680B7001320131F3E70248FFF7D4
:101E40008DFBE6E702B010BD2C3800200080034077
:101E500070B504000D001600C368CA6893421ED016
:101E60000068A36831781A1A834202D1E468043406
:101E700008E005F0DDF8F9E701CC31788022920026
:101E800005F0D6F8EB68A342F6D868682B6831787D
:101E90001A1A834200D170BD05F0CAF8FBE700684A
:101EA0000B6831781A1A8342F5D005F0C1F8F2E7D1
:101EB000F0B5DE4657464E464546E0B5B1B00400A3
:101EC0000D1E06D131B0F0BCBB46B246A946A046B5
:101ED000F0BD036A8269991A01398D4211D8A1694E
:101EE0000391E3690493226A0592626A0692CB1A0F
:101EF000EB180AD480229200934206DA4919039122
:101F00001BE0691AFFF7AEFEE9E7002B6EDDDA177A
:101F1000D205D20DD2185212069901919100019862
:101F20008446614406910968049180208000081865
:101F3000059052029A1A8A180392A3690793E369DB
:101F40009C460893236A9B460993676A0A9703ADE8
:101F5000039E0B9604980C9005990D91069B9A464A
:101F60000E93A3691393634614935B4615931697D8
:101F70000F961090119153461293A3691B936346D9
:101F80001C935B461D931E97179618901991534604
:101F90001A93A3692493634625935B462693279758
:101FA00020962190229153462393772302AA9046AC
:101FB000434498460023994643464A461A70A3690B
:101FC0002C9363462D935B462E932F97289629904A
:101FD0002A9153462B93424628A92CA8FFF738FF95
:101FE00018340ECD0EC42B6823606BE7DA43520A17
:101FF000D24391E770B5A0B0040001A8018015009C
:10200000804B2360804B2360804B08332360FFF7B5
:10201000A3F92071601D022201A905F00FF8A56047
:1020200004AB02937A4A911F002302A8FEF7F2F94B
:1020300002A8FFF70BF9029804AB984203D0049B67
:10204000591C07F055FD2000FFF7AAF92000FFF703
:10205000CDF92000FFF7F0F96E4B5A6A5969511A11
:102060008910013949029A69D869121A89181A69BE
:102070009B68D31AC918632917D964291BD8664BE2
:102080005A6A5969511A8910013949029A69D869FD
:10209000121A89181A699B68D31AC918632957D963
:1020A00064295BD8200020B070BD6423591A5948B8
:1020B000FFF7FEFEE3E7574A91680891D36809935A
:1020C00010690A90526900920B92CB1A643306D4BD
:1020D00080229200934202DA6431089117E0002BCB
:1020E00032DDDA17D205D20DD21852120B990091B7
:1020F00091000098844661440B9109680991802001
:10210000800008180A9052029A1A8A18089208AE9B
:10211000089B1093099B11930A9B12930B9913919F
:102120003C4DAB690C93EB690D932B6A0E936A6A75
:102130000F92043204312800FFF7DBF918350ECE78
:102140000EC533682B609AE7DA43520AD243CDE7D3
:102150006423591A3048FFF7ABFEA3E72E4A916873
:102160001491D368159310691690526900921792D2
:10217000CB1A643306D480229200934202DA64318F
:10218000149117E0002B32DDDA17D205D20DD218E8
:10219000521217990091910000988446614417915A
:1021A00009681591802080000818169052029A1A2A
:1021B0008A18149214AE149B1C93159B1D93169BA6
:1021C0001E9317991F91144DAB691893EB691993DE
:1021D0002B6A1A936A6A1B92043204312800FFF7B3
:1021E00088F918350ECE0EC533682B605AE7DA43EE
:1021F000520AD243CDE7044B2360024B236007F021
:102200001FFDC04690A80410B0A8041084AA0410B2
:102210001EAA0410043800202C380020F8B5050050
:102220000E001400C368CA68934226D00168836810
:102230005F1A8B4203D1E419ED6804350EE03A00D1
:1022400020003BF07DF9F6E702CD802292002000CD
:102250003BF076F980239B009C466444F368AB42D4
:10226000F2D1716833685D1A8B4201D16019F8BDF3
:102270002A0020003BF064F9F8E7016833685D1A32
:102280008B4201D16019F2E72A0020003BF058F997
:10229000F8E700B58BB00368029343680393836843
:1022A0000493C368019305930B6806934B680793E7
:1022B0008B680893CB680193099306A902A8FFF7DE
:1022C000ADFF0BB000BD0000F0B5CE46474680B56F
:1022D000D3B006000D0014000B6802934B68039303
:1022E0008A680492C8680590216806916768079714
:1022F000A3680893E368019309932B6816936B68AE
:1023000017931892199012911397A3681493019B35
:1023100015931B1A9B10013B5B02CF1BDF192B6827
:10232000D21ABF18002F00DA6DE000D170E06DDB2B
:10233000380008F025FA8046434633604744B760CA
:102340002B6899460A936B689C460B93AA680C927B
:10235000E8680D9027680E9765680F95A168109141
:10236000E36811934C461E9464461F94209221907A
:102370001A971B951C911D934C46269464462794EE
:102380002892299022972395249125934C462E94A8
:1023900064462F94309231902A972B952C912D934F
:1023A0004C463A9464463B943C923D904C463E9455
:1023B00064463F94409241903297339534913593DF
:1023C00036973795389139934C464A9464464B94E6
:1023D0004C924D904C464E9464464F94509251907E
:1023E0004297439544914593469747954891499321
:1023F000424646A94EA8FFF74CFF706053B0C0BCE0
:10240000B946B046F0BD04481BF05CFC1BF022FC52
:102410000023984690E7C04674A90410F0B583B035
:1024200007001C00521A00921EE001AB26E03BF0B0
:1024300087F828E0002A32DDD317DB05DB0D9B1877
:102440005B129900E06884466144E160096861605C
:10245000802080000818A0605B02D31ACB1823608C
:10246000009B5D1B00953100009A002A1BDDA368CC
:1024700020681B1A01939A42D7DC6B461D684E19DF
:1024800020682A1ED3D1236862689A1AAA18D1D468
:10249000802189008A42CDDA5B192360E0E7D343CB
:1024A0005B0ADB43CDE723683B6063687B60A3681E
:1024B000BB60E368FB60380003B0F0BDF0B5C64612
:1024C00000B59AB080460D0017001C00CB68D2689A
:1024D000934243D02368069363680793A3680893E5
:1024E000E368099302AE06AB8A6809683000FFF71B
:1024F00095FF230007CE07C332681A60EE680436E2
:1025000015E002CE23680E9363680F93A3681093BF
:10251000E36811930AAD80239B00CA180EAB280014
:10252000FFF77CFF230007CD07C32A681A60FB680A
:10253000B342E6D179683A682368129363681393CB
:10254000A3681493E3680193159312AB4046FFF719
:1025500065FF40461AB080BCB846F0BD09683A68CD
:102560002368169363681793A3681893E36801932D
:10257000199316ABFFF752FFEBE710B58EB00400CE
:10258000086802904868039088680490C9680191BF
:102590000591116806915168079191680891D26878
:1025A000019209921A680A925A680B929A680C92E0
:1025B000DB6801930D930AAB06AA02A92000FFF77E
:1025C0007DFF20000EB010BDF0B5DE4657464E46EA
:1025D0004546E0B5CBB0019098460B689C46029307
:1025E0004B6803938F680497CE6805961568069527
:1025F0005068079091680891D2680992444624680F
:10260000A3460A9444466468A2460B944446A468D0
:10261000A1460C944446E468A0460D946446169482
:1026200017931897199612951390149115925C466A
:102630000E9454460F944C461094444611946446AC
:1026400026942793289729962A942B932C972D9696
:102650001E951F90209121922295239024912592DE
:102660005C461A9454461B944C461C9444461D9454
:1026700064463E943F9340974196429443934497D7
:10268000459636953790389139923A953B903C91E2
:102690003D925B462E9353462F934B4630934346D1
:1026A00031935B463293534633934B4634934346C0
:1026B000359332AB3AAA42A946A8FFF75EFF469B84
:1026C000019A1360479B01935360489B0193936069
:1026D000499BD36010004BB0F0BCBB46B246A94644
:1026E000A046F0BDF0B5DE4657464E464546E0B53D
:1026F000914CA54481460B79002B00D120E18F4EEF
:10270000736A7269991A891001394902B369F269C9
:102710009B1AC9183369B2689B1AC918002404941B
:10272000059406940794089409940A940B940C94C5
:102730000D9404A8FEF75EFFB3689B463093F368E0
:102740009A4631933169329172693392B3692C930D
:10275000F7692D97306A2E90766A2F96069D009520
:102760002895079D01952995089D02952A95099D13
:1027700003952B955D464095554641954291439270
:102780003C933D973E903F96009D3895019D39952D
:10279000029D3A95039D3B9538AB3CAA40A934A8CD
:1027A000FFF712FF0D9B0093099B0193009B019A79
:1027B000991A8910013949020A9B00930B9B0193D6
:1027C000009B019A9B1AC918089B069A9B1AC91864
:1027D0000E940F94109411941294139414941594CD
:1027E000169417940EA8FEF705FF069B9B462093B0
:1027F0000798219008992291099A23920A9B9C4656
:102800001C930B9F1D970C9E1E960D9C1F94109D54
:102810001895119B00931993129B01931A93139B84
:1028200002931B935B464C934D904E914F9263469F
:10283000489349974A964B944495009B4593019B36
:102840004693029B479344AB48AA4CA924A8FFF7A0
:10285000BBFE109B98465493119B9C465593129F28
:102860005697139E5796149C50941598519016990C
:102870005291179A539200234D462B606B60AB60C8
:1028800043465C9363465D935E975F965894599078
:102890005A915B92002358AA5CA94846FFF714FDA1
:1028A000109B00936893119B00936993129B009374
:1028B0006A93139B00936B93149B00936C93159BEB
:1028C00000936D93169B00936E93179B00936F93E9
:1028D0000EA8FEF71AFE069B00936093079B0093D9
:1028E0006193089B00936293099B009363930A9BF7
:1028F000009364930B9B009365930C9B00936693EA
:102900000D9B0093679304A8FEF7FFFD4846C9237B
:102910009B009D44F0BCBB46B246A946A046F0BD14
:102920004846FEF7EFF80EA8FEF700FE04A8FEF7F3
:10293000FDFD07F085F9C046DCFCFFFF04380020F0
:102940008A4E736A7269991A891001394902B3690A
:10295000F2699B1AC9183369B2689B1AC918002416
:102960000494059406940794089409940A940B948B
:102970000C940D9404A8FEF73DFEB3689B46889323
:10298000F3689A46899331698A9172698B92B36927
:102990009C468493F7698597306A8690766A879615
:1029A000069D8095079B00938193089B01938293DA
:1029B000099B029383935B469893534699939A910C
:1029C0009B92634694939597969097969095009BCB
:1029D0009193019B9293029B939390AB94AA98A995
:1029E0008CA8FFF7F1FD0D9B0093099B0193009BC1
:1029F000019A991A8910013949020A9B00930B9B8D
:102A00000193009B019A9B1AC918089B069A9B1A6E
:102A1000C9180E940F941094119412941394149452
:102A20001594169417940EA8FEF7E4FD069B9B469A
:102A300078930798799008997A91099A7B920A9BE2
:102A40009C4674930B9F75970C9E76960D9C77947D
:102A5000109D7095119B00937193129B019372933B
:102A6000139B029373935B46A493A590A691A792A0
:102A70006346A093A197A296A3949C95009B9D93D7
:102A8000019B9E93029B9F939CABA0AAA4A97CA8A8
:102A9000FFF79AFD109B9846AC93119B9C46AD9313
:102AA000129FAE97139EAF96149CA8941598A99068
:102AB0001699AA91179AAB9200234D462B606B6032
:102AC000AB604346B4936346B593B697B796B0945C
:102AD000B190B291B3920023B0AAB4A94846FFF7CF
:102AE000F3FB109B0093C093119B0093C193129B27
:102AF0000093C293139B0093C393149B0093C493BE
:102B0000159B0093C593169B0093C693179B009348
:102B1000C7930EA8FEF7F9FC069B0093B893079B9A
:102B20000093B993089B0093BA93099B0093BB93BE
:102B30000A9B0093BC930B9B0093BD930C9B00934B
:102B4000BE930D9B0093BF9304A8FEF7DEFCDDE669
:102B50004846FDF7D7FF0EA8FEF7E8FC04A8FEF7ED
:102B6000E5FC07F06DF8E1E6F8E7C0462C380020F8
:102B700010B502490120FEF79DFD10BDFFFF0000CA
:102B800010B58300084A944663441C6840226240A2
:102B9000C02414408022520113431C60C000034B28
:102BA0009C466044416010BD04C0014000400140AB
:102BB000034B1B6802201840431E9841C0B2704767
:102BC00000C00640EFF3108072B6034B1B68002B69
:102BD000FBD0BFF35F8F70472C0100D0BFF35F8F36
:102BE000024B00221A6080F3108870472C0100D03D
:102BF000F8B506000C001500FFF7E4FFE308F7182E
:102C0000F15C07222240012393400B4205D1DBB245
:102C10000B433B70FFF7E2FFF8BD2100280002F0F4
:102C200089F8F0B583B00600019114001F00FFF78A
:102C3000C9FF00E00134BC420CD8E308F518F35C8E
:102C40000721214001228A401A42F3D1D2B21A430D
:102C50002A7001E001246442FFF7C0FF002C02DB70
:102C6000200003B0F0BD019B002BF9D0089802F0C2
:102C700061F80000002307E0054A9A189200BFF3AC
:102C80005F8F0021116001331F2BF5D97047C046BB
:102C900040000034054A1078431CDBB21370172B38
:102CA00002D9130010221A707047C046DC1A0020A7
:102CB00000B583B00100044B00931F231822034882
:102CC000FFF7AFFF03B000BDA4AA041044440020E6
:102CD000074B9B68103080001950BFF35F8FBFF324
:102CE0005F8F044B0021196082F310887047C04643
:102CF00000ED00E0240100D010B5091A081F0A4BAE
:102D00009C466144094A914208D8C30706D4401042
:102D10004005400D064B184380B210BD054B064AD6
:102D2000A321064801F06CFFFC070000FE0F000025
:102D300000E0FFFFC0AA041024AD0410F0AA0410A4
:102D400010B5091A04394C08090B08D14905490D79
:102D5000064A11430180064B2343438010BD054BB7
:102D6000054AAB21054801F04BFFC04600F0FFFFCC
:102D700000F8FFFF24AB0410F8AC0410F0AA041014
:102D800001238340034A10681840431E9841C0B293
:102D90007047C04600E100E0002904D0034B1860F2
:102DA000034B18607047034B1860FBE780E200E0BC
:102DB00000E100E080E100E010B50123834018004D
:102DC000FFF7EAFF10BD000001238340014A1360B2
:102DD0007047C04600E200E0024B9B681030800064
:102DE000C058704700ED00E010B5FFF7F5FF002870
:102DF00005D0054BC01A2F2803D8012010BD002094
:102E0000FCE70020FAE7C046E01A002070B5040095
:102E10000D00EFF3108672B60C4B1B68002BFBD035
:102E2000BFF35F8F2000FFF7D7FF094B984201D017
:102E3000A84205D1320029002000FFF749FF70BDEC
:102E4000044B054A8621054801F0DAFE240100D032
:102E5000CD01001034AB041058AD0410F0AA0410DA
:102E6000F0B5DE4657464E464546E0B589B0814648
:102E700001911500EFF3108A72B6744B1B68002B9A
:102E8000FBD0BFF35F8F724B0027DF57002F40DB73
:102E90007C00E419A4006F4824180622A2566C4B4B
:102EA0001A706D4B9A684B4610339B00D358984666
:102EB0001E001B1A2F2B38D9684B98452FD105AE11
:102EC000674B33807B009B46D8198000614B984646
:102ED000404402306349FFF70FFF7080624BB380BC
:102EE000FF23B371F571019B07935F44BF00474413
:102EF0000ECE0EC701231C43A0465246414648460B
:102F0000FFF7E6FE09B0F0BCBB46B246A946A046B4
:102F1000F0BD564B564AD721564801F071FE564B2C
:102F2000534ADE21534801F06BFEC04340440C215C
:102F300003F04EF8002912D101239E43B34633001B
:102F40000026DA79AA4211D90621595600290CDB4C
:102F50004A00521892001E003E4B9B18F1E7474B67
:102F6000434AEA21434801F04BFE1E00002E3AD0AE
:102F700005AB434A1A80813A5A800623F3560293DE
:102F8000002B17DA3F4805AB9B469880029A9A714E
:102F9000DD71019A0792301D2100FFF7ADFEB08070
:102FA000B7717B00DB199B002A4FFF185B4607CBEC
:102FB00007C7A2E77800C0198000264BC01804306C
:102FC000321DB388D90A1C2907D15B055915023176
:102FD00049005118FFF790FED5E72B4B2B4AB12142
:102FE000244801F00DFE05AE1D4B33807B0002939B
:102FF000D8198000174A9046020042440392901C60
:103000001849FFF779FE7080039A101D5946FFF7A3
:1030100073FEB0801E4B5A464146521A52415343EA
:103020001B0DB371F571019A0792029B9C46674490
:10303000BF0047440ECE0EC7114B5A461380813B4A
:10304000538001231C43A04657E7C046240100D00B
:10305000564B0020E01A002000ED00E0CD010010EA
:1030600000A1FFFF101B002001BDFFFF6CAB04108F
:1030700040AD0410F0AA041094AB0410BCAB0410D3
:103080000148000001BD000030AC041030AD041058
:10309000AAAA0000F0B5CE46474680B583B0060028
:1030A0000D00EFF3108872B6564B1B68002BFBD057
:1030B000BFF35F8F544B9A6834001034A300D75885
:1030C000524B9F4207D0AF4200D198E00197504B3E
:1030D000FB1A2F2B09D9424639003000FFF7F8FDC3
:1030E00003B0C0BCB946B046F0BD3000FFF748FEA3
:1030F000814600213000FFF75FFEBFF35F8FEFF3E3
:103100000581002901D08C4211D10123019C9C43EF
:103110000022A368AB4212D00622A256002A0DDB81
:1031200053009B189B002200394CE418F1E736212C
:10313000384B394AFF31394801F062FD2200AB4279
:1031400056D106256557002D38DB6B005B199A00B8
:103150002F4B9B189A68A260DA79E27106229A5680
:10316000A2719B795BB2002B0FDA2D48A0806B0017
:103170005B199B00264AD3182A4A11789971157059
:1031800049463000FFF718FEA5E7201D6B005B19CC
:103190009B001F4A9B181A1D9B88D90A1C2907D11E
:1031A0005B055B15023359005118FFF7A5FDDDE7FC
:1031B0001D4B1E4AB121194801F022FD002912D1F0
:1031C000002A0ED0FF239371194B9380154A137870
:1031D000A371184B0E49641A644163431B0D1370AD
:1031E000CEE70A4FF2E7201D1349FFF7A9FDC7E715
:1031F0006A21124B084AFF31084801F001FD034FD4
:1032000069E7C046240100D000ED00E0CD010010C8
:10321000E01A002048AC041010AD0410F0AA04100D
:1032200001BD0000564B002030AC041030AD04103E
:1032300001BDFFFFAAAA00001A1B00207CAC0410ED
:1032400070B5012101432E4BCB1A2F2B28D8EFF359
:103250000583002B2BD0EFF3108C72B6294A12682D
:10326000002AFBD0BFF35F8F274A0400244D641B64
:1032700064416243120D54B2244A92689B00D258B2
:103280008A421BD00022032A32D853009B189B008D
:103290001B49CB189B795BB2A3421FD00132F2E7E6
:1032A000C7211B4B1B4A49001B4801F0A9FC922176
:1032B0001A4B184AFF31184801F0A2FC134A9268D1
:1032C0001749D150174B1A7882711C70BFF35F8F6A
:1032D0000C4B00221A608CF3108870BD0D00530057
:1032E000991889006918FF268E710F4A8A80E9E7CC
:1032F000D1210E4B074A4900074801F081FCC04626
:10330000E01A0020240100D0AAAA000000ED00E08D
:1033100084AC0410DCAC0410F0AA0410ACAC0410B3
:10332000CD010010564B002001BDFFFFB8AC0410CA
:103330000022044B02E0044902C30132072AFAD9F1
:103340007047C04600E400E08080808000B583B014
:103350000100064B0093052300220548FFF761FC9E
:10336000002801DB1F23181A03B000BDC0AC0410F5
:103370005C4B0020024B9C46614489000160704711
:103380004000003410B50400FFF784FC0100200069
:10339000FFF7F0FFFF232371BFF35F8F10BD10B560
:1033A0000400FFF777FC01002000FFF7E3FFFF2395
:1033B000237100236371BFF35F8F10BD034B9C46E5
:1033C000614489000160BFF35F8F704740000034A3
:1033D00010B504000120FFF76BFC01002000FFF78F
:1033E000EDFF10BD70B505000C00080000F0FCFEFC
:1033F0000949200000F03CFEFFF74CFC074B9C46BF
:103400006044800068602C75D0231B061B786B75A8
:10341000A400034BE55070BD293700104000003474
:10342000004900200A4B1A68EFF3108172B6136846
:10343000002BFCD0BFF35F8F054B1B68BFF35F8F82
:1034400000221A6081F3108840BF002000217047DD
:10345000204B002010B5002922D003681B7B994225
:103460001ED8174B9C466144090183689C46614401
:103470000C684968002A19D003681B7B9A4215D84A
:1034800083680F488446624412019A181068536892
:10349000020001208B4201D80ED00020C0B210BD26
:1034A000084B094A3C21094801F0AAFB054B064A92
:1034B0003C21064801F0A4FBA242EFD8EDE7C0464C
:1034C000FFFFFF0FD0AE041028B10410A0AE04100F
:1034D00010B500291ED0037B99421BD84B005B1806
:1034E000033B0468A4466344002919D0002A1DD078
:1034F000914221D0002A25D0047BA24222D8046820
:1035000050008018033820188170197800291FD1C5
:103510001A7010BD104B114A6821114801F070FB60
:10352000104B114A6F310E4801F06AFB0F4B0E4AE7
:1035300070210B4801F064FB0D4B0B4A71210848C8
:1035400001F05EFB044B054A6821054801F058FB79
:1035500041701A70DDE7C046F4AE041094B1041057
:1035600010AF041050AF041070B104105CAF041021
:1035700068AF041070B506000D001400002914D0C7
:10358000002A14D0806873689847002806D022006B
:1035900029003000FFF79CFF280007E02A002100E7
:1035A0003000FFF795FF200000E0100070BD08001C
:1035B000FCE70000F0B583B00500009201930AAB70
:1035C0001C780BAB1F78002C26D003685A7B9442E2
:1035D00007D10123002B19D1002C3BD1200003B0CF
:1035E000F0BD002C0CD01A7B944209D81A686300F5
:1035F0001B19033BD3189B78002BEBD00123E9E781
:103600003E4B3F4A68213F4801F0FAFA3E4B3F4AA1
:1036100067213F4801F0F4FA03689C7B002CDBD063
:1036200012D01A7B94420FD862001219033A19681B
:103630008C46624451789973002900D1D9730023D4
:10364000937053701370C7E72C4B2D4A68212D4897
:1036500001F0D6FA002C3AD02B681B7B9C4236D85E
:103660002C4BE3181B01AA6894466344009A1A6025
:10367000019A5A60089A9A60099ADA602E68002CBA
:103680002BD030D0337B9C422DD863001B19033BD9
:1036900032689446634400229A705A701A70717BA3
:1036A00022003000FFF766FF7073844200D095E778
:1036B000287D009A019B00F023FD061E01D0002FFB
:1036C00017D00C9B002B00D188E71E7086E7124BA9
:1036D000124A3C210E4801F093FA114B114AA521E0
:1036E000084801F08DFA054B054A6821054801F0AC
:1036F00087FA2868210000F03BFFE2E7F4AE0410EF
:1037000094B1041010AF041080AF0410A0B10410E5
:10371000A0AE0410FFFFFF0FD0AE041028B10410BC
:103720009CAE041084B10410F0B5DE4657464E46F8
:103730004546E0B58BB00990002308938200B54B55
:10374000D658370052E0B44BB44A3F21B44801F098
:1037500057FAB44BB44A3C21B44801F051FA00295D
:1037600001D1002869D10021404600F0F7FEA042B7
:1037700019D12A686B6806920793AB689846EB6884
:103780009A464346002B14D0002C18D03B681B7B74
:103790009C4214D8631EFA68D35C08931B0218433A
:1037A0003861002015E0A24BA24A8E219F4801F00B
:1037B00027FAA14B9F4A92219C4801F021FA994B8C
:1037C0009E4A4121994801F01BFA00239A469846E7
:1037D00000207B68BFF35F8F00221A6086F3108899
:1037E0004346002B32D1002800D10CE100F0FCFB55
:1037F00002000B1EA7DB00200021069007917868CD
:10380000EFF3108672B601680029FCD0BFF35F8F1A
:10381000396888464C7B002CD7D09AD0097B8C42E3
:1038200097D8874965182D01B9688C466544286882
:103830006968801A9941002991DD2A686B680998A6
:1038400000F05EFC00239A469846C2E7089B1B02E4
:103850002343994651461800C04705000E007A6878
:10386000EFF3108B72B6136859424B41D9B2002B5B
:10387000F9D1BFF35F8F002E1EDB002E46DD3B69C2
:10388000002B47D04B456DD100F0AEFB02000B1E64
:103890006EDB52197341002B70DB002B72DB0021B1
:1038A00004910131039102945146019141460091E6
:1038B0003800FFF77FFE4CE03B69002BDDD04B4525
:1038C00014D1069A079B521BB341002B14DB002B2B
:1038D00016DB0021049101310391029451460191BC
:1038E000414600913800FFF765FE32E0554B514AE2
:1038F000A1214E4801F084F901225242524BE6E7E1
:10390000454B464A3F21464801F07AF9002E01D145
:10391000002DB4D13B68002C50D05A7B944237D153
:10392000012100294AD1DA7B002A4DD19A7B002A55
:1039300003D1DA7B002A5AD19C73DC73002C5CD053
:103940003B681B7B9C4258D8FA68013C135D0133ED
:10395000135500233B617A68BFF35F8F13608BF3CD
:10396000108843E7374B334AA421304801F048F927
:10397000294B2A4A3F212A4801F042F901225242AA
:10398000314B8AE7244B254A3F21254801F038F97D
:10399000002C0DD01A7B94420AD862001219033A07
:1039A0001868844662449278002ABAD00121B8E7A8
:1039B000264B274A6821274801F022F9264B274A3F
:1039C000F621244801F01CF9002A0AD0197B8A420A
:1039D00007D851008A18033A19688C46624454701B
:1039E000A4E71A4B1A4A68211A4801F009F91C4B3E
:1039F0001A4AFB21174801F003F90A4B0F4A4121EB
:103A00000A4801F0FDF80BB0F0BCBB46B246A9462F
:103A1000A046F0BD00490020C0AD0410F4B0041071
:103A2000DCAD0410D0AE041028B10410A0AE041018
:103A3000A8AF04100CB10410C0AF04104CB10410B6
:103A4000FFFFFF0FCCAF0410FFFFFF7FF4AE0410A9
:103A500094B1041010AF041008B0041060B1041049
:103A60002CB0041010B50C4B5B68002B04D00A215D
:103A70000A48FFF77FFC10BD074C2300084A1021BD
:103A8000206800F07BFC032000F0A2FA0321200054
:103A9000FFF7A8FCEBE7C046281B0020204B0020C6
:103AA0005534001010B5064B5B68002B01D004485C
:103AB00010BD044B044A5E21044801F0A1F8C04641
:103AC000281B002040B0041034B10410A0AE041034
:103AD000F0B5DE4657464E464546E0B58BB08046CB
:103AE00016001F00149B9A46159B994616AB1B782F
:103AF0009B461F2302AA9446634400221A702BE0BF
:103B0000002809D042461268127B904204D8421E17
:103B10004146C9688A5C41E0404B414A41214148E5
:103B200001F06EF807984CE0361BAF41002F07DB21
:103B3000002F11DA3C4B3D4A3F213D4801F060F82F
:103B4000012676423B4FF3E7374B384A3F2138484E
:103B500001F056F8002F4FDB43465A68EFF310840C
:103B600072B6136859424B41D9B20791002BF8D174
:103B7000BFF35F8F1F3302AA94466344049300236C
:103B8000039302934B4601935346009332003B004C
:103B90004046FFF70FFD031EB2D1020041464968BF
:103BA000BFF35F8F00250D6084F31088002B29D0B0
:103BB0001F2302A98C4663441B78002BB2D112024A
:103BC0001043002B20D05B46002B1DD04946D04728
:103BD00004000D0003000B431DD00029A4DB00F0FE
:103BE00003FA06000F1EAFDB36196F41002FB1DA62
:103BF000012676420F4FADE70B4B0C4A3F210C4894
:103C000000F0FEFF012040420BB0F0BCBB46B246C4
:103C1000A946A046F0BD0798F6E7C046D0AE04100E
:103C20004CB10410A0AE0410C0AD0410F4B00410E8
:103C3000DCAD0410FFFFFF7FF8B504004268EFF32E
:103C4000108572B6136858424341D8B2002BF9D19F
:103C5000BFF35F8FCBB22268567BB3421BD10120EA
:103C6000002848D0206988422BD0090AC9B2002B0D
:103C70002ED02068007B83422AD8581EE668305C2C
:103C800088422BD000206368BFF35F8F00221A6048
:103C900085F31088F8BD002B0DD0167BB3420AD8EF
:103CA0005E00F618033E1768BC466644B678002EE0
:103CB000D6D00120D4E7134B134A6821134800F0F3
:103CC0009FFF9521124B134A4900134800F098FFBB
:103CD000124B134A4121104800F092FF19001000C6
:103CE00000F046FC0028CED132210E4B094AFF31AC
:103CF000094800F085FF23698B42C4D1002323616A
:103D0000C1E7C046F4AE041094B1041010AF041023
:103D100064B00410DCB00410A0AE0410D0AE0410E7
:103D20004CB1041088B00410407D7047F0B587B0E6
:103D300006000F00EFF30583002B1FD10624644219
:103D4000E517A4197D418D4202D803D1844201D9DF
:103D500000240025002D14DB0494059500F044F99F
:103D600002000B1E13DBA41A9D41002D17DC14D09A
:103D70003000390000F044F907B0F0BD234800F0EE
:103D8000D9FF234B234A3F21234800F039FF204B22
:103D9000204A3F21204800F033FF002CE8D0FFF7F5
:103DA00081FE0023029301931C4B0093049A059B10
:103DB000FFF78EFE002818DADAE7002300E0002380
:103DC000002BD5D1164B1A68EFF3108172B6136829
:103DD000002BFCD0BFF35F8F114B1B68BFF35F8FCD
:103DE00000221A6081F3108820BF0499059A0D4BB8
:103DF0005B6A9A42E3D80B48806A884203D29A42AF
:103E0000DBD00123DCE70123DAE7C0468CB00410E5
:103E1000C0AD0410F4B00410DCAD04102534001063
:103E2000204B00200040054070B504000D0000F05C
:103E3000DBF802000B1E0ADB200029008018594124
:103E400000290ADB00290CDBFFF770FF70BD084B6F
:103E5000084A3F21084800F0D3FE012040420749AC
:103E6000F0E7034B034A3F21034800F0C9FEC04678
:103E7000C0AD0410F4B00410DCAD0410FFFFFF7FF0
:103E800010B5FA2292000023002102F0ABFFFFF7E9
:103E9000CBFF10BD70B584B005000C00EFF30583B7
:103EA000002B1ED1FFF7FEFD002302930193224B4E
:103EB00000932A002300FFF70BFE061E23DD20BF20
:103EC000FFF7F0FD3100FFF7B7FE1C4B5B6A9C4229
:103ED0002DD81A4A926AAA422CD29C4225D001209F
:103EE00026E0164B5B6A994209D8144A926A8242CC
:103EF00007D2994201D001201AE0002018E00020EA
:103F000016E0012014E00D4B5B6A9C4209D80B4A75
:103F1000926AAA4207D29C4201D0012008E0002008
:103F200006E0002004E0012002E0002000E0002084
:103F300004B070BD0120FBE72534001000400540AF
:103F400070B5EFF305801038EFF3108C72B61A4B92
:103F50001B68002BFBD0BFF35F8F0122130083404F
:103F600016494B6316490B60164909780C00C4408A
:103F7000224214D0114A546A8200134D525994427D
:103F800006D38200114C125999430E4B197007E069
:103F90000A4A031D9B0099589950002200E0002214
:103FA000BFF35F8F044B002119608CF31088002A47
:103FB00000D0904770BDC046280100D000400540A9
:103FC0003C7005405B4B00202C4B00202C43002014
:103FD00010B50100024A0348FEF70AFE10BDC046B4
:103FE000C0B10410554B0020044B5B6A034A906A31
:103FF0001900536A9942F9D17047C0460040054004
:10400000084B5B6A01E0074B5B6A8B42FBD301E024
:10401000044B5B6A8B4203D1024B9B6A8342F7D30A
:104020007047C0460040054070B504000D00FFF722
:10403000DBFF02000B0020002900801859418B4251
:1040400002D804D1824202D901204042C11700297E
:1040500002DBFFF7D5FF70BD024B034A3F21034847
:1040600000F0CEFDC0AD04105CB20410DCAD041055
:1040700070B504000D00EFF3108672B61B4B1B6881
:10408000002BFBD0BFF35F8F002D1CD02000FEF76C
:10409000A3FE174B83420BD019002000FEF7B6FE9B
:1040A00001212000FEF788FE0123A340114A13607E
:1040B000A400114BE550BFF35F8F0C4B00221A6038
:1040C00086F3108870BDA2000B4B0021D150012255
:1040D000A2400A490B7893430B7005492000FEF774
:1040E000D9FF00212000FEF767FEE4E7280100D099
:1040F000413F0010386005402C4300205B4B0020FE
:10410000F0B5DE4600B584B00400150001921E0033
:104110000293FFF769FF03958E4202D84ED1854284
:104120004CD9EFF3108B72B6274B1B68002BFBD0DA
:10413000BFF35F8F254A17780125A540EBB23B43BB
:104140001370234B5D63221D92000199D150A20090
:104150002049029850501B6A2B4212D11C4B1B6CF9
:104160002B4208D00020BFF35F8F174B00221A604C
:104170008BF3108823E0184B184AC521184800F02B
:104180003FFDFFF731FF8E4214D802D1039B8342DB
:1041900010D80E4B1B78BB420ED00D4B1D625D63D9
:1041A0001F2004400123A3400E4A1360074B1F70D9
:1041B0001E38D8E70020D6E70120D4E7012004B05C
:1041C00080BCBB46F0BDC046280100D05B4B002040
:1041D000004005402C4B0020E4B1041040B2041014
:1041E00008B2041080E200E0EFF3108C72B60B4BC3
:1041F0001B68002BFBD0BFF35F8F01238340084A6D
:10420000136208490A789A430A70BFF35F8F034B21
:1042100000221A608CF310887047C046280100D035
:10422000004005405B4B002010B500291ED0037BE9
:1042300099421BD84B005B18033B0468A4466344B7
:10424000002919D0002A1DD0914221D0002A25D062
:10425000047BA24222D8046850008018033820183A
:104260008170197800291FD11A7010BD104B114AA6
:104270006821114800F0C4FC104B114A6F310E4800
:1042800000F0BEFC0F4B0E4A70210B4800F0B8FC4A
:104290000D4B0B4A7121084800F0B2FC044B054A53
:1042A0006821054800F0ACFC41701A70DDE7C0469B
:1042B000F4AE041058B3041010AF041050AF041043
:1042C00044B304105CAF041068AF041070B506006E
:1042D0000D001400002914D0002A14D080687368DF
:1042E0009847002806D0220029003000FFF79CFFE5
:1042F000280007E02A0021003000FFF795FF20008A
:1043000000E0100070BD0800FCE7000010B50023BD
:10431000437301338373037BC3730123027B9A428C
:1043200014D9002B0CD0027B934209D85A00D21822
:10433000033A01688C4662440133DBB25370EDE707
:104340000B4B0C4A68210C4800F05AFC002A09D09B
:10435000924207D8016853009A18033A8A1800233A
:10436000537010BD024B034A6821034800F048FC1B
:10437000F4AE041058B3041010AF041010B501735C
:1043800042608360FFF7C2FF10BD000070B50400FB
:10439000081E00D170BD002934D0237B994231D84A
:1043A0004B005B18033B2268944663445A78002A0A
:1043B000F0D02DD0237B9A422AD853009B18033B80
:1043C00021688C4663445D7800215970002825D00F
:1043D000237B984222D843001B18033B21688C465C
:1043E00063440021597001002000FFF76FFF0600B1
:1043F00029002000FFF7CAFF020031002000FFF76C
:1044000065FFC7E7084B094A6821094800F0F8FB37
:10441000054B064A6821064800F0F2FB024B034AAE
:104420006821034800F0ECFBF4AE041058B304100C
:1044300010AF041070B505000C00160000292FD035
:1044400034D0037B994231D84B005B18033B0268A0
:10445000944663445A78002A2ED19A78002A31D1A2
:104460001978FFF793FF0300002E0AD0EA7B002A99
:104470002ED1AA7B002A03D1EA7B002A3BD1AC7360
:10448000EC73002B3DD1002C4FD02B7B9C424CD8A1
:104490002B6861000C19033C1C190023637070BD6C
:1044A000254B264A3821264800F0AAFB254B264AF0
:1044B0006821264800F0A4FB254B204A3A212048D9
:1044C00000F09EFB234B1D4A3B211D4800F098FB4A
:1044D000002A0AD0297B8A4207D851008A18033A59
:1044E00029688C4662445470C3E7164B164A68210B
:1044F000164800F085FB184B104A4221104800F086
:104500007FFB002B0BD02A7B934208D843001B185B
:10451000033B2A689446634400229A70B3E7094B30
:10452000094A6821094800F06BFB064B064A6821DE
:10453000064800F065FBC04674B2041030B30410A6
:104540007CB20410F4AE041058B3041010AF041081
:10455000ACB20410D4B204102CB0041070B5040036
:104560000A00457B2900FFF765FF6073280070BDD6
:1045700070B50400002967D0437B8B420ED0002920
:1045800011D0037B99420ED84B005B18033B0268A5
:10459000D0188378002B0CD1002056E00121FFF7C2
:1045A000DDFF012051E0294B294A6821294800F00C
:1045B00027FB002B20D0227B93421DD85A00D31812
:1045C000033B2268D2182568EB5C8B421AD0002B83
:1045D0001BD0227B934218D85A00D318033B226881
:1045E000D21853788B4216D0002BF0D11A4B1B4AAD
:1045F0006B211B4800F004FB144B154A6821154839
:1046000000F0FEFA4378137007E0104B104A68215F
:10461000104800F0F5FA437853700023837043701C
:1046200001222000FFF706FF0200617B814205D0D6
:104630002000FFF74BFE6073012006E0094B074A9C
:104640007121074800F0DCFA002070BDF4AE0410C0
:1046500058B3041010AF0410B8AC041018B3041011
:104660007CB20410F8B2041070B504000D000620EE
:1046700000F07EF9C000290001F0AAFCC60908D0AC
:104680000E4B9E4217D87F23184001303500460854
:1046900000E001256562A6622C348020800104437D
:1046A00000232360062000F063F98000A901891926
:1046B00001F08EFC70BD0026014DEBE7FEFF00000F
:1046C000FFFF0000002909D00A22064B9C466044E7
:1046D000434258414000044BC2527047802252006E
:1046E000F3E7C0460080FCBF3C4B002070B50500DE
:1046F0000C00062000F03CF9002829D0164B9D4202
:1047000027D08022D203154B1A60154B1A60154B27
:104710009B6811009943FAD100212800FFF7D2FFCE
:1047200021002800FFF7A0FF2C002C34E96A60224A
:104730004A406E21114080225201224311600A4BEF
:104740002B6380239B01234310221A600323AB6455
:1047500070BD80221204D6E70080034000E00040D4
:1047600000F0004000C0004001030000F8B5DE4644
:1047700057464E464546E0B505000F0092460A9A58
:1047800093424ED31A0E91461E020A9A002330001D
:10479000494601F05BFC80466C006419A4002F4B75
:1047A0009C4664446368834200D260602B1FDBB286
:1047B0009B46012B3BD9C0239B012343802212013E
:1047C0001A60AB00264A9958002905D0506901F0BB
:1047D000FFFB01300138FDD153465A0123685A408E
:1047E000E0231A4080235B0123431A605A46012AC2
:1047F00028D980239B012343802212011A6043465B
:104800006360424600233000494601F01FFCAD00C2
:10481000134B58510120F0BCBB46B246A946A046F6
:10482000F8BD104B104A2D21104800F0E9F9012F76
:10483000C1D1C0239B01234303221A60A368DB0775
:10484000FCD5C9E72168794003220A401A60A268B2
:104850000123BB401342FAD0CBE7C04600800040A2
:104860004844002064B30410B4B3041078B30410B7
:1048700030B583B00C2000F017F9FEF799F9002845
:104880000DD0002304E099002D4A2E4888500133B2
:10489000092BF8D92A4B2C4A5A6203B030BD2B4B56
:1048A00000229A6700F072F9294B01221A60274B07
:1048B0005B6C012BFBD1274B03221A60234B9B6BB4
:1048C000012BFBD1013300930433234A01212348F8
:1048D00000F054F805230093214A0121214800F0FB
:1048E0004DF8214B0093002202210420FFF73EFFE8
:1048F0001E4D00952B00002201210520FFF736FFF9
:10490000104C00942300002200210720FFF72EFF07
:1049100000942300002200210820FFF727FF0A4B04
:1049200000932300002200210920FFF71FFF0095BC
:104930002B00002200210620FFF718FFADE7C0463C
:1049400048440020006CDC021BB7000000800040DF
:104950003CB0004030B00040002F68590080024059
:10496000008C864700C00240001BB7004059730707
:104970008000014BC058704748440020F0B5C6463F
:1049800000B504000D00170098460C2001F020FB34
:104990000600394BFA18394B9A4241D843011B1A89
:1049A0009901C91AC90009188901380001F010FBE2
:1049B0000200103A98235B009A4237D84346013BE5
:1049C000062B39D8069B013B062B35D83F09B74249
:1049D00038D343461E04069B1A0316432368002B54
:1049E00036DB274B9C4244D080225201254B1A6073
:1049F000254B1A60254B9B6811009943FAD125601D
:104A0000A060231DC02292011A4321231360236852
:104A1000002BFCDAE6600823136080BCB846F0BDCA
:104A20001B4B1C4A11211C4800F0EAF81B4B194A89
:104A30001921194800F0E4F8194B164A1C211648B0
:104A400000F0DEF8174B134A2321134800F0D8F882
:104A500022683F231340AB42C3D1A3681B051B0D43
:104A60008342BED1E368EE22D2021340B342B8D1F2
:104A7000D3E780229201B9E780E84BD380F8A932CE
:104A800000C0024000E0004000F0004000C00040D4
:104A9000C4B30410DCB4041024B4041058B40410DB
:104AA00074B40410C0B4041080239B000343014A73
:104AB000D362704700800540024B1A68024B5A606F
:104AC0007047C046F04800200080054010B5020045
:104AD000164B8020C0051860154B16481860002939
:104AE0000AD0154BE021C9041960002A09D1124BE4
:104AF000802212061A6010BD0C4BE021C904196017
:104B0000F3E753019B1A9800801800010B4B1860C3
:104B100080235B04984202D3084B094A1A60FFF7CE
:104B2000CBFF054B8022D2051A60E4E700B00540B8
:104B300008200140FCFF010000A00540F0480020D3
:104B4000FFFFFF0010B5030010000C4A8024E405AD
:104B50001460002B0DD001221343094A094CD46183
:104B6000094C5C401462516293620021FFF7AEFF72
:104B700010BD034B0022DA61F7E7C04600B00540E4
:104B800000800540D3C007B02D3FF84F064BAA2246
:104B900012011A602F22DA60044B054A1A60024B98
:104BA0005B68002BFBDA7047004002400060024067
:104BB00000B0FA0000BEFDE703000A4A1268002AAE
:104BC00008D0084A1068C318074A9A4206D3054A13
:104BD00013607047034A05491160F2E70120404223
:104BE000F7E7C046E844002000000420604B0020A6
:104BF0000020704701204042704710B5FFF7DAFFF0
:104C000010B582B00C001900002A0CD0084B002A05
:104C10000BD00192009323000200064802F0D8FB5B
:104C20000120FFF7C7FF044BF1E7034AF1E7C04655
:104C3000E8B40410F8B4041040EF041070B52B4B26
:104C40002B4A1A602B4B2C4A1A602C4B9A682A4B21
:104C50009343FAD12A4C01E008CC9847294B9C4257
:104C6000FAD3FFF705FE234B274A1A60234B9B68B4
:104C7000DB43DB01FAD1254B40229A675A671A675A
:104C8000DA66234C09E0234B234A86212348FFF7A9
:104C9000B7FF2000FEF776FB0834214B9C4209D277
:104CA0002368002BF5D0012BEDD12000FEF777FB18
:104CB0000834F2E71B4CA1681B4DC022280002F00B
:104CC000BDF9A560EFF30583002B00D000BEFDF712
:104CD000D1FFFEF72DFBFEF7C5FE144C01E008CC1A
:104CE0009847134B9C42FAD370BDC04600E0004089
:104CF000BFCDFBFE00F00040FE7F3C0000C0004046
:104D00006026002070260020FFFFFF0100F0014018
:104D10005826002028B5041090B5041048B504109A
:104D20006026002000ED00E000000020702600203A
:104D3000A02600200FB400B583B0084802F018FB8D
:104D4000049B002B07D005A90191180002F020FB5D
:104D5000034802F00DFB0120FFF72CFF80B5041083
:104D600058C204109A4200D288547047704710B558
:104D7000002802D00B684968984710BD0100002048
:104D800007E083001B185B00501C08601078C018F7
:104D900030380A681378303BDBB2092BF1D9704701
:104DA000F0B5DE4657464E464546E0B583B09346DD
:104DB0001F000C9B9A460D9C0E9B99460F9B9B07D0
:104DC00003D0B8460F00060022E00192A3468846B1
:104DD0004E46B9460700B44207D2551C4B464146E1
:104DE0002020B84701342A00F5E73D004F465C46D5
:104DF000019B9B46B1464646B84637002E0007E069
:104E0000013C551C5346185D43463900B0472A0003
:104E1000002CF5D135003E0047460F9B9B0707D479
:104E2000100003B0F0BCBB46B246A946A046F0BD98
:104E3000B0464E46B9462F005D46531BB342EFD2F3
:104E4000541C4B4641462020B8472200F5E7F0B5F8
:104E5000CE46474680B585B0944698460C9D0D9C3D
:104E60000EAB1B789946109A119B129EB7071CD463
:104E7000002B0CD0F7070AD54F46002F02D10C3774
:104E8000374204D0013B02E030272F5501349442D1
:104E900001D21F2CF8D9F70707D59C4205D21F2C49
:104EA00003D830272F550134F5E7F70615D57705D8
:104EB00005D4002C03D0944224D09C4222D00F9AD7
:104EC000102A2BD00F9A102A30D00F9A022A35D0F0
:104ED0001F2C02D830222A5501341F2C05D84A46EF
:104EE000002A31D02D222A550134039602930194D1
:104EF000009543466246FFF753FF05B0C0BCB94674
:104F0000B046F0BD621E012C06D00F9F102F01D0BD
:104F10001400D4E7023CD2E71400D0E7B206D1D4A3
:104F20001F2CCFD878222A550134D1E7B206CCD530
:104F30001F2CCAD858222A550134C9E71F2CC7D8BC
:104F400060322A550134C3E7720703D52B222A5554
:104F50000134CAE73207C8D520222A550134C4E7F4
:104F6000F0B5DE4657464E464546E0B593B081461D
:104F70008A46089209931CAB10CB1B789B461E9D5A
:104F8000219B9846002C03D1102342469A43904619
:104F90008023DB0046461E4042461A4212D0002CB7
:104FA00022D000260EE03033D9B2771C0AAB9955D7
:104FB0002900200001F00CF8AC4216D31F2F14D8A2
:104FC0003E0004002900200001F002F8CBB2092BBA
:104FD000E9D94246920605D54121C918C9B20A3914
:104FE000C9B2E2E76121F8E7270043460693209B18
:104FF00005931F9B049303955B46029301970AABAD
:105000000093099B089A51464846FFF720FF13B0CA
:10501000F0BCBB46B246A946A046F0BDF0B5DE46A0
:1050200057464E464546E0B595B0089009910A921C
:105030000B931E9E1F9C20AB1B789B46229B994680
:10504000239D269B9A463300234303D110335246B7
:105050009A4392468023DB0057461F4052461A422D
:1050600019D0330023432DD0002714E03033DAB2B7
:105070007B1C98460CABDA554A462B0030002100C9
:1050800000F0E4FFA5421FD819D043461F2B1BD8C0
:10509000474606000C004A462B003000210000F075
:1050A000D5FFD3B2092BE1D95246920605D541224C
:1050B000D218D2B20A3AD2B2DAE76122F8E7B145A1
:1050C000E3D901E00023984653460693259B0593B8
:1050D000249B04934B4603935B4602934346019300
:1050E0000CAB00930B9B0A9A09990898FFF7AFFE47
:1050F00015B0F0BCBB46B246A946A046F0BD0000C4
:10510000F0B5DE4657464E464546E0B591B083467B
:105110008A460C9298461A9C08941B9D0995220079
:105120002B002000290001F024FA002800D0E5E03F
:1051300001225242D74B2000290001F015FA002825
:1051400000D0DBE001225242D34B2000290001F0C5
:10515000F5F9002800D0D1E000220023089E30009D
:10516000099D290001F0EAF9002800D0DDE0089847
:105170000999069007918023DB001E9A1A400D9230
:105180001E9A1A4201D106231C930698079904001F
:105190000D000A000600024300D1D1E0080D4005D1
:1051A000400DBE4CA44660440A03120BBC4B134393
:1051B0001F0001F0F1F9BB4ABB4B01F074F9BB4A87
:1051C000BB4B01F049F904000D000022B94B30003F
:1051D000390001F038F9B84AB84B01F064F902001F
:1051E0000B002000290001F037F901F0EDF98146AC
:1051F00001F0D2F904000D00B14AB24B01F053F9AD
:105200000022B14B01F028F901F0DEF90600AF4AA7
:10521000AF4B2000290001F046F904000D003000DA
:1052200001F0BAF9AB4AAC4B01F03DF902000B00BA
:105230002000290001F007F904000D0002000B0016
:1052400001F031F90A900B91A44BF31800261F05C9
:1052500022002B002000290001F0FEF80E900F9193
:1052600022002B0000208021C90501F0ECF8040089
:105270000D0000229A4B0A980B9901F0F6F80022D3
:10528000984B01F0E9F802000B000A980B9901F025
:10529000ECF80022944B01F0DFF802000B000A98B2
:1052A0000B9901F0E2F802000B002000290001F048
:1052B000D3F802000B000E980F9901F0D6F80022E7
:1052C000774B01F0C9F832003B0001F0ECF8060022
:1052D0000F0004000D00069A079B01F045F9002815
:1052E00030D001235B429C46E14400227D4B3000DC
:1052F000390001F0BAF804000D0023E01E9B04936E
:105300001D9B03931C9B0293089A099B0092019397
:1053100043460C9A5146584600F0FCF811B0F0BCD8
:10532000BB46B246A946A046F0BD00230024069322
:105330000794069680231B069C46654407951AE74A
:10534000002399464B466333C62B1ED804261E9B6A
:105350001B0526D52B0023430FD0644A644B0698C7
:10536000079901F0F9F8002879D00022614B0698DE
:10537000079901F0E3F8002871D01C9B4B4506DD2E
:105380004A46981A431E1C9303E00526DFE70023D4
:105390001C938023DB001E9A1A431E9200260023D2
:1053A00099461D9B9E4264D29F1B02231E9A1A405F
:1053B0000A921E9A134202D0002E00D000274B46BC
:1053C000002B07D022002B000698079901F04DF81A
:1053D00006900791002200230898099901F0AEF881
:1053E000002848D1444B1E9A1340049303971C9BFA
:1053F0000293069B079C0093019443460C9A5146E6
:10540000584600F087F8002E00D187E71E9B9B06C8
:105410003DD54525441C4346020051462800D84747
:105420004B46DA179B18534005220592013E04961D
:10543000002203920A3202924A46D00F0190009352
:105440004346220051465846FFF78AFD0A9B002B2F
:1054500000D163E702005F460C9E1D9D54E01C9B3B
:10546000002B9ED00D9B002B9BD01C9B013B1C93C3
:1054700097E7002799E7069C079D220029008020D6
:105480000006844661440B0006920793AAE765254F
:10549000C0E7C046FFFFEF7FFFFFEFFF01FCFFFF0C
:1054A0000000F03FFB799F501344D33FB3C8608B9B
:1054B000288AC63F0000F83F61436F63A787D23F49
:1054C00071A379094F930A400000E03F1655B5BB20
:1054D000B16B0240EF39FAFE422EE63FFF030000B7
:1054E00000002C4000002440000018402D431CEB1D
:1054F000E2361A3F80842E41FFF7FFFF541C4346DB
:1055000051462020B8472200931BAB42F6D310002F
:1055100004E7C046F0B5DE4657464E464546E0B580
:1055200095B00690079193469946209F1E9A1F9B1F
:105530001000190001F01DF8002831D1012252425B
:10554000BF4B1E981F9900F0F9FF002837D10122A8
:105550005242BC4B1E981F9901F006F800283DD11D
:105560000022B94B1E981F9900F0FEFF002850D171
:105570000022B64B1E981F9900F0E0FF002848D18A
:10558000002200231E981F9900F0D8FF002850D158
:1055900000239846229B5B0500D4B6E0002458E027
:1055A000229B0393219B029303230193A84B009317
:1055B0004B465A4607990698FFF7F2FB0EE1229BED
:1055C0000393219B029304230193A24B00934B4628
:1055D0005A4607990698FFF7E3FBFFE00423229A57
:1055E0001A4022990B4210D09B4B002A0FD0042264
:1055F0002299039121990291019200934B465A46B8
:1056000007990698FFF7CCFBE8E0944BEDE70322FF
:10561000EEE7229B0493219B039302971E9B1F9C02
:10562000009301944B465A4607990698FFF768FD88
:10563000D4E01E9A1F9B0020002100F004FF1E9062
:105640001F9101239846A5E70CAB30221A55013F64
:1056500001341F2C01D8092FF6D81E981F9900F08D
:10566000B3FF050000F098FF02000B001E981F9981
:1056700000F0E9FEFA007A4B9B181A685B680A9200
:105680000B9300F010FF0890099100F0C1FF060095
:1056900000F07EFF02000B000898099900F0D3FE8D
:1056A0000890099100226F4B00F05EFF00282ED079
:1056B0000136300000F06CFF02000B000A980B99D5
:1056C00000F042FF002801D001350026002F2CD128
:1056D000280000F061FF02000B001E981F9900F0E7
:1056E000B2FE06000F0000225E4B00F027FF0028EC
:1056F00046D100225B4B3000390000F035FF002816
:105700003ED1EB073CD501353AE0062746E70022BB
:10571000544B0898099900F011FF0028D6D1002EAB
:1057200001D0F307D2D50136D0E7AA461F2C11D8F5
:10573000013F0A21300000F04BFC651C30310CABFE
:1057400019550A21300000F043FC092E0ED906003D
:105750002C00EBE755461F2C0CD87B1E002F09D0E0
:105760000CAA302111551F000134F4E72B005546D7
:105770001C00F0E71F2C03D80CAB2E221A55013465
:105780001F2C10D80A21280000F0FAFB661C3031CB
:105790000CAB19550A21280000F0F2FB051E01D0C0
:1057A0003400EDE734000323229A1340012B1CD070
:1057B0001F2C06D84346002B32D00CAB2D221A5595
:1057C0000134229B0393219B029301940CAB009321
:1057D0004B465A4607990698FFF7E2FA15B0F0BC17
:1057E000BB46B246A946A046F0BD219B002B13D074
:1057F0004346002B02D10C3313420FD0219B013BB7
:105800002193190003E00CAB30221A5501348C426D
:10581000CED21F2CF7D9CBE72199F8E72199F6E7EB
:10582000229B5B0704D50CAB2B221A550134C8E729
:10583000229B1B07C5D50CAB20221A550134C0E7AB
:10584000FFFFEFFFFFFFEF7F65CDCD4165CDCDC100
:10585000ACB50410B0B50410A4B50410A0B5041084
:1058600098B704100000E03FF0B5DE4657464E46BC
:105870004546E0B593B082468B4690461193002989
:1058800000D1EBE200275546119B1878002800D183
:10589000E7E2252809D07C1C43463A005946A84730
:1058A000119B013311932700EEE70133119300247C
:1058B000119A11780B00203BD8B2102803D883002E
:1058C000D048C3589F460B00303BDBB2092B2CD984
:1058D0002A292FD000230A93119B1A782E2A39D017
:1058E00000239A46119A1378683BD9B2122976D8C8
:1058F0008B00C549CB589F4601231C4301321192AE
:10590000D6E702231C4301321192D1E704231C4342
:1059100001321192CCE708231C4301321192C7E7F0
:1059200010231C4301321192C2E711A8FFF726FA97
:105930000A90D1E71C9B1A1D1C921868002804DBF2
:105940000A90119B01331193C6E702231C43434283
:105950000A93F6E78022D20014435A1C11925A7817
:105960001300303BDBB2092B04D92A2A07D00023CD
:105970009A46B7E711A8FFF701FA8246B2E71C9BE7
:105980001A1D1C921868002804DB8246119B013303
:105990001193A7E70020F8E780235B002343511C05
:1059A000119152786C2A01D01C0018E0C0239B0092
:1059B0001C430131119112E080232343511C1191AA
:1059C0005278682A01D01C0009E0C0231C43013131
:1059D000119104E080235B001C4301321192119B62
:1059E00018780300253BDAB2532A00D92CE2930041
:1059F000864AD3589F4680239B001C430132119254
:105A0000EDE780235B001C4301321192E7E7782821
:105A100009D0582838D06F2838D0622838D01023C1
:105A20009C430A2600E01026582833D0692803D06A
:105A3000642801D00C229443630501D501229443CC
:105A400069282AD0642828D0A30500D59FE0E30563
:105A500000D5B8E0630600D4CAE01C9A111D1C9161
:105A60001168FF220A4005940A9B0493534603934E
:105A7000029600230193009243463A0059462800BB
:105A8000FFF76EFA070027E01026CDE70826CBE7E0
:105A90000226C9E720221443C8E7A30520D4E30562
:105AA00050D4630666D51C9A111D1C911168FF2203
:105AB0000A40D317D118594005940A9B04935346C2
:105AC00003930296D20F0192009143463A00594641
:105AD0002800FFF745FA0700119B01331193D3E625
